:100000000C9435010C9466010C9466010C94660105
:100010000C9466010C9466010C9466010C946601C4
:100020000C9466010C9466010C9466010C946601B4
:100030000C9466010C9466010C9466010C946601A4
:100040000C9466010C9466010C9466010C94660194
:100050000C9466010C9466010C9466010C94A90240
:100060000C9466010C941D030C94F3020C9466012D
:100070000C9466010C9466010C9466010C94660164
:100080000C9466010C9466010C9466010C94660154
:100090000C9466010C9466010C9466010C94660144
:1000A0000C9466010C9466010C9466010C94660134
:1000B0000C9466010C9466010C9466010C94660124
:1000C0000C9466010C9466010C9466010C94660114
:1000D0000C9466010C9466010C9466010C94660104
:1000E0000C9466010C9491040C94FE010C94A401F0
:1000F0000C9473040C946C040C9495010C9470048F
:100100000C94B8010C9464040C948B040C94830438
:100110000C949F040C9468040C9468010C9479046A
:100120000C9447040C9487040C9495040C944C0490
:100130000C944B020C9499040C94A7040C94A30403
:100140000C94C6010C947D040000220025002800B8
:100150002B002E00310034000201000005010801CF
:100160000B0100002100240027002A002D00300090
:10017000330001010000040107010A010000200012
:100180002300260029002C002F003200000100006F
:10019000030106010901050505050705080808080A
:1001A000020202020A0A080804040404010101010F
:1001B000010101010303030303030303040707070A
:1001C0000C0C0C0C0C0C0C0C0202020206060606AF
:1001D000060606060B0B0B0B0B0B0B0B010210207C
:1001E000200808102040102040800201020108046D
:1001F0000201010204081020408080402010080401
:100200000201800402018040201008040201080459
:10021000020101020408102040800102040810209D
:10022000408000000A0B02090C0D0E0807030401B0
:1002300000000000000000000000000000000000BE
:10024000000000000000000000000000000012118B
:10025000100000000000000000000000000000008E
:100260000000000000000000A70411241FBECFEF13
:10027000D1E2DEBFCDBF00E00CBF12E0A0E0B2E0F3
:10028000ECEBF9E000E00BBF02C007900D92AC333D
:10029000B107D9F722E0ACE3B2E001C01D92A23E63
:1002A000B207E1F711E0C5E3D1E000E006C0219715
:1002B0000109802FFE010E94D404C433D10780E0DD
:1002C0000807A9F70E9453030C94DC040C94000067
:1002D000AF92BF92CF92DF92EF92FF920F931F9354
:1002E000CF93DF936C017B018B01040F151FEB0192
:1002F0005E01AE18BF08C017D10759F06991D60149
:10030000ED91FC910190F081E02DC6011995892BAA
:1003100079F7C501DF91CF911F910F91FF90EF9079
:10032000DF90CF90BF90AF900895FC01538D448D26
:10033000252F30E0842F90E0821B930B541710F090
:10034000CF96089501970895FC01918D828D98179D
:1003500061F0A28DAE0FBF2FB11D5D968C91928D75
:100360009F5F9F73928F90E008958FEF9FEF0895A6
:10037000FC01918D828D981731F0828DE80FF11D6F
:10038000858D90E008958FEF9FEF0895FC01918D8A
:10039000228D892F90E0805C9F4F821B91098F7383
:1003A0009927089585E492E00E94C60121E0892BF7
:1003B00009F420E0822F0895FC01A48DA80FB92F25
:1003C000B11DA35ABF4F2C91848D90E001968F737D
:1003D0009927848FA689B7892C93A089B1898C919C
:1003E000837080648C93938D848D981306C00288EB
:1003F000F389E02D80818F7D80830895EF92FF92B5
:100400000F931F93CF93DF93EC0181E0888F9B8D37
:100410008C8D98131AC0E889F989808185FF15C0F1
:100420009FB7F894EE89FF896083E889F989808114
:100430008370806480839FBF81E090E0DF91CF91E3
:100440001F910F91FF90EF900895F62E0B8D10E005
:100450000F5F1F4F0F731127E02E8C8D8E110CC074
:100460000FB607FCFACFE889F989808185FFF5CFBF
:10047000CE010E94DC01F1CFEB8DEC0FFD2FF11DC1
:10048000E35AFF4FF0829FB7F8940B8FEA89FB89FC
:1004900080818062CFCFCF93DF93EC01888D88235A
:1004A000B9F0AA89BB89E889F9898C9185FD03C0D7
:1004B000808186FD0DC00FB607FCF7CF8C9185FFBC
:1004C000F2CF808185FFEDCFCE010E94DC01E9CF24
:1004D000DF91CF91089580E090E0892B29F00E9470
:1004E000D20181110E94000080E090E0892B49F048
:1004F00080E090E0892B29F00E94000081110E9489
:10050000000080E090E0892B49F080E090E0892BAA
:1005100029F00E94000081110E94000080E090E01C
:10052000892B49F080E090E0892B29F00E9400009F
:1005300081110C9400000895FC0101900020E9F75E
:100540003197AF01481B590BBC0185E492E00C9434
:1005500068011F920F920FB60F9211242F933F93B1
:100560008F939F93AF93BF938091410290914202EA
:10057000A0914302B09144023091400223E0230F46
:100580002D3758F50196A11DB11D2093400280938F
:10059000410290934202A0934302B093440280919F
:1005A0003C0290913D02A0913E02B0913F02019623
:1005B000A11DB11D80933C0290933D02A0933E0289
:1005C000B0933F02BF91AF919F918F913F912F9137
:1005D0000F900FBE0F901F90189526E8230F0296DC
:1005E000A11DB11DD2CF1F920F920FB60F921124F1
:1005F0000BB60F922F933F934F935F936F937F931D
:100600008F939F93AF93BF93EF93FF9385E492E013
:100610000E94DC01FF91EF91BF91AF919F918F916B
:100620007F916F915F914F913F912F910F900BBEF2
:100630000F900FBE0F901F9018951F920F920FB63C
:100640000F9211240BB60F922F938F939F93EF93DA
:10065000FF93E0915502F09156028081E0915B0298
:10066000F0915C0282FD1DC0908180915E028F5FDF
:100670008F7320915F02821741F0E0915E02F0E0FB
:10068000EB5BFD4F958F80935E02FF91EF919F9101
:100690008F912F910F900BBE0F900FBE0F901F9058
:1006A00018958081F2CF789484B5826084BD84B53A
:1006B000816084BD85B5826085BD85B5816085BD5D
:1006C00080916E00816080936E0010928100809115
:1006D000810082608093810080918100816080939D
:1006E0008100809180008160809380008091B100C2
:1006F00084608093B1008091B00081608093B000ED
:10070000809191008260809391008091910081603E
:1007100080939100809190008160809390008091FF
:10072000A10082608093A1008091A10081608093EC
:10073000A1008091A00081608093A00080912101A0
:100740008260809321018091210181608093210149
:100750008091200181608093200180917A008460E3
:1007600080937A0080917A00826080937A008091F1
:100770007A00816080937A0080917A00806880930B
:100780007A001092C100E0915502F091560282E089
:100790008083E0915102F09152021082E091530265
:1007A000F09154028FEC808310925D02E091590227
:1007B000F0915A0286E08083E0915702F09158024E
:1007C000808180618083E0915702F091580280819E
:1007D00088608083E0915702F091580280818068A0
:1007E0008083E0915702F091580280818F7D808351
:1007F000C3EED1E0FE0124910DE911E0F8018491EE
:100800008823C9F090E0880F991FFC01EE59FE4F34
:10081000A591B491FC01E85BFE4F459154913FB71F
:10082000F8949C91822F809598239C93FA01908153
:10083000892380833FBF99E2E92E92E0F92EF701E8
:100840008491FE012491F8019491992309F431C017
:10085000882311F181508231F8F4E82FF0E08827E5
:10086000EB5CFB4F8F4F0C94D4046C047004470472
:10087000640468044C04730479047D0483048704CD
:100880008B04910495044C0499049F04A304809163
:1008900080008F7780938000E92FF0E0EE0FFF1F3C
:1008A000E458FE4FA591B4918C91282382E192E007
:1008B00011F486E292E00E949C0283E292E00E94A0
:1008C0009C020E946B02BBCF809180008F7DE2CFA3
:1008D00080918000877FDECF84B58F7784BDDCCFA9
:1008E00084B58F7DFBCF8091B0008F778093B0006F
:1008F000D3CF8091B0008F7DF9CF809190008F771A
:1009000080939000C9CF809190008F7DF9CF809126
:100910009000877FF5CF8091A0008F778093A00013
:10092000BBCF8091A0008F7DF9CF8091A000877F01
:10093000F5CF809120018F7780932001ADCF8091FA
:1009400020018F7DF9CF80912001877FF5CFE5E4ED
:10095000F2E01382128288EE93E0A0E0B0E084839C
:100960009583A683B78384E092E09183808385ECAE
:1009700090E09587848784EC90E09787868780EC69
:1009800090E0918B808B81EC90E0938B828B82EC5A
:1009900090E0958B848B86EC90E0978B868B118E04
:1009A000128E138E148E0895EE0FFF1F881F8BBFBB
:0C09B0000790F691E02D1994F894FFCF09
:1009BC0000000000FE01680195014B02C601A40174
:1009CC00B8014D6F74696F6E2064657465637465EE
:1009DC00642E000D0A004D6F74696F6E206E6F747B
:0C09EC002064657465637465642E00006F
:00000001FF
