:100000000C9417010C942B010C942B010C942B01D4
:100010000C942B010C942B010C942B010C942B01B0
:100020000C942B010C942B010C942B010C942B01A0
:100030000C942B010C942B010C942B010C942B0190
:100040000C942B010C942B010C942B010C942B0180
:100050000C942B010C942B010C942B010C94D801C3
:100060000C942B010C942B010C942B010C942B0160
:100070000C942B010C942B010C942B010C942B0150
:100080000C942B010C942B010C942B010C942B0140
:100090000C942B010C942B010C942B010C942B0130
:1000A0000C942B010C942B010C942B010C942B0120
:1000B0000C942B010C942B010C942B010C942B0110
:1000C0000C942B010C942B010C942B010C942B0100
:1000D0000C942B010C942B010C942B010C942B01F0
:1000E0000C942B010C94D2010C94B2010C94BA0123
:1000F0000C9481010C949B010C94CE010C94C801CA
:100100000C94AC010C9497010C94C0010C94A201C6
:100110000C947C010C94B6010C94C4010C949F01C6
:100120000C9493010C94A80100000A0B02090C0D19
:100130000E0807030401000000000000000000009A
:1001400000000000000000000000000000000000AF
:10015000000000001211100000000000000000006C
:10016000000000000000000000000000000000008F
:100170002200250028002B002E003100340002014F
:100180000000050108010B010000210024002700E8
:100190002A002D0030003300010100000401070196
:1001A0000A010505050507050808080802020202FC
:1001B0000A0A080804040404010101010101010103
:1001C0000303030303030303040707070C0C0C0CCE
:1001D0000C0C0C0C020202020606060606060606B7
:1001E0000B0B0B0B0B0B0B0B010210202008081044
:1001F0002040102040800201020108040201010297
:10020000040810204080804020100804020180046F
:1002100002018040201008040201080402010102CA
:10022000040810204080010204081020408011249E
:100230001FBECFEFD1E2DEBFCDBF00E00CBF22E09A
:10024000A0E0B2E001C01D92A930B207E1F70E9420
:1002500022020C94FC020C94000090E0FC01E85196
:10026000FE4F24918E559E4FFC018491882399F076
:1002700090E0880F991FFC01E857FE4FA591B491BB
:10028000FC01E259FE4F859194918FB7F894EC915F
:10029000E22BEC938FBF0895282F30E0F901E85D41
:1002A000FE4F9491F901E851FE4F44912E553E4F77
:1002B000F9012491222309F435C0992311F19150B9
:1002C0009231F8F4E92FF0E08827E659FE4F8F4F7E
:1002D0000C94F4029B019F017C0193019701810121
:1002E000A201A801AC01B201B601BA01C001C4016A
:1002F0008101C801CE01D201809180008F77809367
:100300008000E22FF0E0EE0FFF1FE259FE4FA591B3
:10031000B4918FB7F894EC91611148C040954E2389
:100320004C938FBF0895809180008F7DE8CF80919E
:100330008000877FE4CF84B58F7784BDE2CF84B51A
:100340008F7DFBCF8091B0008F778093B000D9CFA5
:100350008091B0008F7DF9CF809190008F7780934E
:100360009000CFCF809190008F7DF9CF8091900049
:10037000877FF5CF8091A0008F778093A000C1CFB9
:100380008091A0008F7DF9CF8091A000877FF5CF6D
:10039000809120018F7780932001B3CF809120013D
:1003A0008F7DF9CF80912001877FF5CF4E2BB8CF7D
:1003B0001F920F920FB60F9211242F933F938F939A
:1003C0009F93AF93BF938091050290910602A091F5
:1003D0000702B09108023091040223E0230F2D3769
:1003E00058F50196A11DB11D2093040280930502CA
:1003F00090930602A0930702B09308028091000236
:1004000090910102A0910202B09103020196A11DF8
:10041000B11D8093000290930102A0930202B09359
:100420000302BF91AF919F918F913F912F910F90B8
:100430000FBE0F901F90189526E8230F0296A11D5E
:10044000B11DD2CF789484B5826084BD84B58160BB
:1004500084BD85B5826085BD85B5816085BD80918F
:100460006E00816080936E00109281008091810007
:1004700082608093810080918100816080938100FF
:10048000809180008160809380008091B1008460C1
:100490008093B1008091B00081608093B000809122
:1004A000910082608093910080919100816080939F
:1004B0009100809190008160809390008091A100D4
:1004C00082608093A1008091A10081608093A1004F
:1004D0008091A00081608093A000809121018260C2
:1004E000809321018091210181608093210180917D
:1004F000200181608093200180917A008460809344
:100500007A0080917A00826080937A0080917A00EC
:10051000816080937A0080917A00806880937A006D
:100520001092C10086E10E942D0187E10E942D01F9
:1005300088E10E942D0189E10E942D018AE10E943B
:100540002D018BE10E942D0180E30E942D0181E3AA
:100550000E942D0182E30E942D0183E30E942D0160
:1005600084E30E942D0185E30E942D0161E086E174
:100570000E944C0161E087E10E944C0160E088E14B
:100580000E944C0160E089E10E944C0160E08AE138
:100590000E944C0160E08BE10E944C0161E080E32D
:1005A0000E944C0160E081E30E944C0160E082E324
:1005B0000E944C0160E083E30E944C0160E084E310
:1005C0000E944C0160E085E30E944C0185E20E949C
:1005D0002D0161E085E20E944C01C0E0D0E020974F
:1005E000F1F30E940000FBCFEE0FFF1F881F8BBFAF
:0C05F0000790F691E02D1994F894FFCFCD
:00000001FF
