:100000000C943B010C946C010C946C010C946C01ED
:100010000C946C010C946C010C946C010C946C01AC
:100020000C946C010C946C010C946C010C946C019C
:100030000C946C010C946C010C946C010C946C018C
:100040000C946C010C946C010C946C010C946C017C
:100050000C946C010C946C010C946C010C94A6052E
:100060000C946C010C9470050C9446050C946C0176
:100070000C946C010C946C010C946C010C946C014C
:100080000C946C010C946C010C946C010C946C013C
:100090000C946C010C946C010C946C010C946C012C
:1000A0000C946C010C946C010C946C010C946C011C
:1000B0000C946C010C946C010C946C010C946C010C
:1000C0000C946C010C946C010C946C010C946C01FC
:1000D0000C946C010C946C010C946C010C946C01EC
:1000E0000C946C010C94DB020C94FB020C94AA019E
:1000F0000C949B010C9451020C94D2020C94C602F5
:100100000C94E5020C94ED020C9404020C94DF02B2
:100110000C9440050C94F3020C94C0020C9405035B
:100120000C946E010C94F9050C94F7020C94BE012A
:100130000C94CE020C94E9030C94E9020C94000395
:100140000C94CA020C94E8030C9401030C94D5029D
:100150000C94CC0100002100240027002A002D006F
:100160003000330001010000040107010A01000012
:100170002200250028002B002E003100340002014F
:100180000000050108010B010000200023002600EB
:1001900029002C002F00320000010000030106019D
:1001A00009010505050507050808080802020202FD
:1001B0000A0A080804040404010101010101010103
:1001C0000303030303030303040707070C0C0C0CCE
:1001D0000C0C0C0C020202020606060606060606B7
:1001E0000B0B0B0B0B0B0B0B010210202008081044
:1001F0002040102040800201020108040201010297
:10020000040810204080804020100804020180046F
:1002100002018040201008040201080402010102CA
:1002200004081020408001020408102040800000D3
:100230000A0B02090C0D0E08070304010000000060
:1002400000000000000000000000000000000000AE
:10025000000000000000000000001211100000006B
:10026000000000000000000000000000000000008E
:1002700000000000F90511241FBECFEFD1E2DEBF60
:10028000CDBF00E00CBF12E0A0E0B2E0E2E5F6E195
:1002900000E00BBF02C007900D92A834B107D9F758
:1002A00023E0A8E4B2E001C01D92AC32B207E1F74E
:1002B00011E0CBE3D1E000E006C021970109802FD7
:1002C000FE010E94110BCA33D10780E00807A9F78D
:1002D0000E9443060C94270B0C940000AF92BF922F
:1002E000CF92DF92EF92FF920F931F93CF93DF9302
:1002F0006C017B018B01040F151FEB015E01AE1831
:10030000BF08C017D10759F06991D601ED91FC9152
:100310000190F081E02DC6011995892B79F7C5016F
:10032000DF91CF911F910F91FF90EF90DF90CF90D1
:10033000BF90AF900895FC01538D448D252F30E080
:10034000842F90E0821B930B541710F0CF960895E2
:1003500001970895FC01918D828D981761F0A28D0F
:10036000AE0FBF2FB11D5D968C91928D9F5F9F73D5
:10037000928F90E008958FEF9FEF0895FC01918D8B
:10038000828D981731F0828DE80FF11D858D90E0F8
:1003900008958FEF9FEF0895FC01918D228D892F95
:1003A00090E0805C9F4F821B91098F73992708957D
:1003B00087E792E00E94CC0121E0892B09F420E03C
:1003C000822F0895FC01A48DA80FB92FB11DA35A47
:1003D000BF4F2C91848D90E001968F739927848F65
:1003E000A689B7892C93A089B1898C918370806488
:1003F0008C93938D848D981306C00288F389E02D29
:1004000080818F7D80830895EF92FF920F931F93D9
:10041000CF93DF93EC0181E0888F9B8D8C8D9813B7
:100420001AC0E889F989808185FF15C09FB7F894C3
:10043000EE89FF896083E889F9898081837080640F
:1004400080839FBF81E090E0DF91CF911F910F915A
:10045000FF90EF900895F62E0B8D10E00F5F1F4F69
:100460000F731127E02E8C8D8E110CC00FB607FC78
:10047000FACFE889F989808185FFF5CFCE010E9406
:10048000E201F1CFEB8DEC0FFD2FF11DE35AFF4F91
:10049000F0829FB7F8940B8FEA89FB898081806294
:1004A000CFCFCF93DF93EC01888D8823B9F0AA8951
:1004B000BB89E889F9898C9185FD03C0808186FD1F
:1004C0000DC00FB607FCF7CF8C9185FFF2CF80816E
:1004D00085FFEDCFCE010E94E201E9CFDF91CF9100
:1004E000089580E090E0892B29F00E94D8018111C5
:1004F0000E94000080E090E0892B49F080E090E0CD
:10050000892B29F00E94000081110E94000080E0E8
:1005100090E0892B49F080E090E0892B29F00E943F
:10052000000081110E94000080E090E0892B49F0DA
:1005300080E090E0892B29F00E94000081110C944A
:10054000000008958150823108F05AC0E82FF0E091
:100550008827E255FD4F8F4F0C94110BCE02D2022B
:10056000C002C602CA020003D502DB02DF02E502B6
:10057000E902ED02F302F7020003FB0201030503A7
:10058000809180008F778093800008958091800013
:100590008F7DF9CF80918000877FF5CF84B58F77ED
:1005A00084BD089584B58F7DFBCF8091B0008F7797
:1005B0008093B00008958091B0008F7DF9CF809135
:1005C00090008F77809390000895809190008F7DA8
:1005D000F9CF80919000877FF5CF8091A0008F7731
:1005E0008093A00008958091A0008F7DF9CF809125
:1005F000A000877FF5CF809120018F778093200125
:100600000895809120018F7DF9CF80912001877F0F
:10061000F5CFCF93DF93282F30E0F901E25DFD4F56
:100620008491F901E851FE4FD491F901EE55FE4F46
:10063000C491CC23A1F081110E94A202EC2FF0E022
:10064000EE0FFF1FE857FE4FA591B491EC91ED23FB
:1006500081E090E009F480E0DF91CF91089580E09F
:1006600090E0FACF1F93CF93DF93282F30E0F9016A
:10067000E25DFD4F8491F901E851FE4FD491F901FB
:10068000EE55FE4FC491CC23A9F0162F81110E9484
:10069000A202EC2FF0E0EE0FFF1FE259FE4FA591F2
:1006A000B4918FB7F894EC91111108C0D095DE2366
:1006B000DC938FBFDF91CF911F910895DE2BF8CF90
:1006C000CF93DF9390E0FC01E851FE4F24918E55CB
:1006D0009E4FFC0184918823D1F090E0880F991FF0
:1006E000FC01EC5AFE4FA591B491FC01E259FE4F7A
:1006F000C591D49161110EC09FB7F8948C91E22FEF
:10070000E0958E238C932881E223E8839FBFDF91BD
:10071000CF9108958FB7F894EC91E22BEC938FBFB3
:10072000F6CF3FB7F89480914D0290914E02A09180
:100730004F02B091500226B5A89B05C02F3F19F07B
:100740000196A11DB11D3FBFBA2FA92F982F882751
:10075000BC01CD01620F711D811D911D42E0660F2C
:10076000771F881F991F4A95D1F708958F929F92FE
:10077000AF92BF92CF92DF92EF92FF924B015C015A
:100780000E9491036B017C010E9491036C197D0909
:100790008E099F09683E734081059105A8F321E009
:1007A000821A9108A108B10888EEC80E83E0D81E0D
:1007B000E11CF11C81149104A104B10429F7FF90FC
:1007C000EF90DF90CF90BF90AF909F908F90089563
:1007D000089590E080E00895CF93DF93EC0160E00E
:1007E0008E810E94320361E08E810E94320360E0BC
:1007F0008E810E9432038BE891E00197F1F7DF913F
:10080000CF910895CF92DF92EF92FF920F931F93B3
:10081000CF93DF936C017C0187E0E80EF11CD0E000
:10082000C0E0062F10E0B8010C2E02C07595679548
:100830000A94E2F76170F70181917F010E9432030F
:100840002196C430D10579F7C601DF91CF911F9170
:100850000F91FF90EF90DF90CF900C94EC03CF922C
:10086000DF92EF92FF920F931F93CF93DF93EC01F0
:10087000F62E642F8C810E9432038D818F3F19F0F8
:1008800060E00E9432030F2D10E08F8584FF25C0A9
:100890006E0187E0C80ED11CF12CE12CB8010E2CA2
:1008A00002C0759567950A94E2F76170F60181912F
:1008B0006F010E943203FFEFEF1AFF0A88E0E8168B
:1008C000F10461F7CE01DF91CF911F910F91FF905D
:1008D000EF90DF90CF900C94EC03B80184E0759515
:1008E00067958A95E1F7CE010E9402046F2DCE0133
:1008F000DF91CF911F910F91FF90EF90DF90CF90FC
:100900000C94020440E0682F84E193E00C942F04DF
:1009100081E00E9482048BE39FE10197F1F7089543
:10092000CF93DF93823029F49091230398609093C2
:100930002303809327031092280380E480932903E4
:1009400080E180932A0380E580932B0361E080910E
:1009500018030E946003809119038F3F19F061E032
:100960000E94600361E080911A030E946003C4E169
:10097000D3E09E01245133408091230384FD0BC0BA
:1009800084E090E021962817390744F461E08E81D5
:100990000E946003EECF88E090E0F4CF8BE39DE00F
:1009A0000197F1F760E0809118030E94320360E044
:1009B00080911A030E943203809119038F3F19F02E
:1009C00060E00E9432038091230384FD34C063E021
:1009D00084E193E00E940204CBE4D6E4CE010197C7
:1009E000F1F763E084E193E00E9402042197F1F7BC
:1009F00063E084E193E00E94020483E592E00197C2
:100A0000F1F762E084E193E00E9402048091230305
:100A100080620E94820484E0809324038CE00E9420
:100A200082040E94880482E08093250386E0DF919F
:100A3000CF910C94820480620E9482048BE496E43D
:100A40000197F1F78091230380620E94820483E57D
:100A500092E00197F1F78091230380620E94820463
:100A6000D5CF90912703691710F06FEF690FE62F2C
:100A7000F0E0EC5EFC4F9489890F80680C9482044E
:100A800041E00E942F0481E090E008951F920F92B0
:100A90000FB60F9211240BB60F922F933F934F93E3
:100AA0005F936F937F938F939F93AF93BF93EF93D6
:100AB000FF9387E792E00E94E201FF91EF91BF91DF
:100AC000AF919F918F917F916F915F914F913F91E6
:100AD0002F910F900BBE0F900FBE0F901F90189587
:100AE0001F920F920FB60F9211240BB60F922F93F5
:100AF0008F939F93EF93FF93E0918702F091880289
:100B00008081E0918D02F0918E0282FD1DC0908166
:100B1000809190028F5F8F7320919102821741F034
:100B2000E0919002F0E0E958FD4F958F809390029C
:100B3000FF91EF919F918F912F910F900BBE0F908E
:100B40000FBE0F901F9018958081F2CF1F920F92C9
:100B50000FB60F9211242F933F938F939F93AF93D0
:100B6000BF938091490290914A02A0914B02B091AB
:100B70004C023091480223E0230F2D3758F501969F
:100B8000A11DB11D209348028093490290934A020F
:100B9000A0934B02B0934C0280914D0290914E0273
:100BA000A0914F02B09150020196A11DB11D8093FA
:100BB0004D0290934E02A0934F02B0935002BF910A
:100BC000AF919F918F913F912F910F900FBE0F90FA
:100BD0001F90189526E8230F0296A11DB11DD2CFB4
:100BE00041E0682F84E193E00E942F0481E090E0CF
:100BF0000895E7E7F2E01382128288EE93E0A0E026
:100C0000B0E084839583A683B7838AE092E09183E2
:100C1000808385EC90E09587848784EC90E09787CB
:100C2000868780EC90E0918B808B81EC90E0938BB9
:100C3000828B82EC90E0958B848B86EC90E0978B96
:100C4000868B118E128E138E148EE4E1F3E01382E4
:100C500012828CE192E0918380838CE084838FEF19
:100C600085838BE0868385E0878384E0808783E0CB
:100C7000818782E0828713861486158616861786FA
:100C800081E00C949004CF93DF9300D01F92CDB7F6
:100C9000DEB7789484B5826084BD84B5816084BDFC
:100CA00085B5826085BD85B5816085BD80916E000A
:100CB000816080936E00109281008091810082603B
:100CC0008093810080918100816080938100809178
:100CD00080008160809380008091B1008460809367
:100CE000B1008091B00081608093B000809191004C
:100CF0008260809391008091910081608093910047
:100D0000809190008160809390008091A10082602A
:100D10008093A1008091A10081608093A1008091C7
:100D2000A00081608093A000809121018260809367
:100D30002101809121018160809321018091200116
:100D400081608093200180917A00846080937A0092
:100D500080917A00826080937A0080917A0081602D
:100D600080937A0080917A00806880937A00109254
:100D7000C10082E00E949004E0918702F091880215
:100D800082E08083E0918302F09184021082E091FE
:100D90008502F09186028FEC808310928F02E091A1
:100DA0008B02F0918C0286E08083E0918902F091C1
:100DB0008A02808180618083E0918902F0918A02B9
:100DC000808188608083E0918902F0918A0280812D
:100DD00080688083E0918902F0918A0280818F7D12
:100DE000808360E08EE00E94600360E08FE00E94FC
:100DF000600360E080E10E94600360E081E10E94A6
:100E0000600360E082E10E94600360E086E10E948E
:100E1000600360E087E10E94600360E088E10E9477
:100E2000600360E089E10E94600360E08AE10E9463
:100E3000600360E08DE10E94600360E08FE10E944A
:100E4000600360E080E20E94600360E081E20E9453
:100E5000600360E082E20E94600360E083E20E943F
:100E6000600360E086E20E94600360E08EE10E9421
:100E7000600360E087E20E94600361E088E20E9414
:100E8000600360E089E20E94600360E084E00E9409
:100E9000310547E050E064E272E084E193E00E94B3
:100EA0006E0161E080E00E9431058EE00E9409033E
:100EB0009C838B8390937602809375028FE00E94CF
:100EC00009038C01909374028093730280E10E9465
:100ED00009034C01909372028093710281E10E9498
:100EE00009033C019093700280936F0282E10E949B
:100EF00009037C0190936E0280936D028DE10E9444
:100F000009035C0190936C0280936B028CE10E9458
:100F100009032C0190936A02809369028BE10E947D
:100F2000090390936802809367028AE10E94090393
:100F3000909366028093650289E10E940903909371
:100F400064028093630286E10E9409039093620227
:100F5000809361028FE10E9409036C01909360020B
:100F600080935F0280E20E9409031C0190935E025D
:100F700080935D0281E20E94090390935C0280935A
:100F80005B0282E20E94090390935A028093590205
:100F900083E20E940903909358028093570286E2ED
:100FA0000E94090390935602809355028EE10E949D
:100FB00009039A838983909354028093530287E2B2
:100FC0000E94090389E20E940903909352028093D0
:100FD000510289819A81019709F055C28B819C81C8
:100FE000019779F00130110561F091E089169104C3
:100FF00041F021E06216710421F081E0E816F1046D
:1010000051F461E088E20E94320362E370E080E024
:1010100090E00E94B6038B819C81892BF1F401152D
:101020001105D9F481149104C1F461147104A9F477
:10103000E114F10491F460E088E20E94320362E37B
:1010400070E080E090E00E94B60361E080E00E94E2
:101050003105809105020E94F005AB2809F05EC2BF
:10106000CA94CD2809F05AC28B819C81019781F0E6
:101070000130110569F091E08916910449F021E0F1
:101080006216710429F081E0E816F10409F046C205
:1010900061E080E00E9431059801F3E0220F331FE8
:1010A000FA95E1F78B819C81A4E0880F991FAA959E
:1010B000E1F7822B8E299401220F331F220F331F59
:1010C000822B9301220F331F822B50E4D52ED80E92
:1010D0008D2D0E94F005D09205028B819C81892B79
:1010E000A1F40115110589F48114910471F46114BE
:1010F000710459F4E114F10441F461E081E00E94CB
:101100003105809104020E94F005452809F00FC2C4
:101110002A94232809F00BC28B819C81019781F0CE
:101120000130110569F091E08916910449F021E040
:101130006216710429F081E0E816F10409F0F7C1A4
:1011400061E081E00E943105980143E0220F331FE6
:101150004A95E1F78B819C8154E0880F991F5A953D
:10116000E1F7822B8E299401220F331F220F331FA8
:10117000822B9301220F331F822BE0E4DE2ED80E48
:101180008D2D0E94F005D0920402C0905B02D09099
:101190005C02A0906702B09068028B819C81892BD1
:1011A000A1F40115110589F48114910471F46114FD
:1011B000710459F4E114F10441F461E082E00E9409
:1011C0003105809103020E94F005AB2809F0B8C1F7
:1011D000CA94CD2809F0B4C18B819C81019781F01C
:1011E0000130110569F091E08916910449F021E080
:1011F0006216710429F081E0E816F10409F0A0C13B
:1012000061E082E00E9431059801E3E0220F331F84
:10121000EA95E1F78B819C81F4E0880F991FFA959C
:10122000E1F7822B8E299401220F331F220F331FE7
:10123000822B9301220F331F822B90E4D92ED80EDC
:101240008D2D0E94F005D0920302C0905902D090DB
:101250005A02A0906502B09066028B819C81892B16
:10126000A1F40115110589F48114910471F461143C
:10127000710459F4E114F10441F461E083E00E9447
:101280003105809102020E94F005AB2809F061C18E
:10129000CA94CD2809F05DC18B819C81019781F0B2
:1012A0000130110569F091E08916910449F021E0BF
:1012B0006216710429F081E0E816F10409F049C1D1
:1012C00061E083E00E9431059801B3E0220F331FF3
:1012D000BA95E1F78B819C8144E0880F991F4A956C
:1012E000E1F7822B8E299401220F331F220F331F27
:1012F000822B9301220F331F822B70E4D72ED80E3E
:101300008D2D0E94F005D0920202C0905702D0901D
:101310005802A0906302B09064028B819C81892B5B
:10132000A1F40115110589F48114910471F461147B
:10133000710459F4E114F10441F461E084E00E9485
:101340003105809101020E94F005AB2809F00AC125
:10135000CA94CD2809F006C18B819C81019781F048
:101360000130110569F091E08916910449F021E0FE
:101370006216710429F081E0E816F10409F0F2C068
:1013800061E084E00E943105980163E0220F331F81
:101390006A95E1F78B819C8174E0880F991F7A959B
:1013A000E1F7822B8E299401220F331F220F331F66
:1013B000822B9301220F331F822BA0E4DA2ED80E4A
:1013C0008D2D0E94F005D0920102C0905502D09060
:1013D0005602A0906102B09062028B819C81892BA1
:1013E000A1F40115110589F48114910471F46114BB
:1013F000710459F4E114F10441F461E085E00E94C4
:101400003105809100020E94F005AB2809F0B3C0BD
:10141000CA94CD2809F0AFC08B819C81019781F0DF
:101420000130110569F091E08916910449F021E03D
:101430006216710429F081E0E816F10409F09BC0FE
:1014400061E085E00E9431058B819C8124E0880F5A
:10145000991F2A95E1F733E0000F111F3A95E1F744
:10146000802B8E29880C991C880C991C8829660C65
:10147000771C862920E4280F2983822F0E94F005FB
:101480008981809300028091530290915402892BAC
:1014900081F461E080E00E94310546E050E06CE2BA
:1014A00072E084E193E00E946E0161E080E00E94BE
:1014B0003105809105022091510230915202232B77
:1014C00009F062C08F35A9F0909104029F3589F030
:1014D000909103029F3569F0909102029F3549F087
:1014E000909101029F3529F0909100029F3509F0FB
:1014F0004BC00E94880461E080E00E9431054AE010
:1015000050E063E372E084E193E00E946E0168EED4
:1015100073E080E090E00E94B603EBCF61E080E0F2
:101520000E943105809105020E94F005D6CD61E050
:1015300081E00E943105809104020E94F00525CED1
:1015400061E082E00E943105809103020E94F00573
:101550007CCE61E083E00E943105809102020E940E
:10156000F005D3CE61E084E00E9431058091010254
:101570000E94F0052ACF61E085E00E94310580914C
:1015800000020E94F0057FCF082E000C990B0E94EC
:101590001C0B892B09F442C080910402082E000C18
:1015A000990B0E941C0B892BC9F180910302082E14
:1015B000000C990B0E941C0B892B81F18091020277
:1015C000082E000C990B0E941C0B892B39F180917D
:1015D0000102082E000C990B0E941C0B892BF1F0C4
:1015E00080910002082E000C990B0E941C0B892B85
:1015F000A9F00E94880461E080E00E94310548E083
:1016000050E06EE372E084E193E00E946E0168EEC8
:1016100073E080E090E00E94B603EBCF0E9471027D
:1016200044CCEE0FFF1F881F8BBF0790F691E02D73
:10163000199485FD0C94240B806291110C94240B59
:1016400081568A51D8F70895992788270895F894E4
:02165000FFCFCA
:101652004040404040400000000004026E019B01F7
:101662005102CC01AA01BE010000000040056E013A
:10167200E903E80348414E474D414E0053544F524F
:1016820045210054525920414741494E2100594FAA
:081692005520574F4E210000C6
:00000001FF
