:100000000C9417010C942B010C942B010C942B01D4
:100010000C942B010C942B010C942B010C942B01B0
:100020000C942B010C942B010C942B010C942B01A0
:100030000C942B010C942B010C942B010C942B0190
:100040000C942B010C942B010C942B010C942B0180
:100050000C942B010C942B010C942B010C943B025F
:100060000C942B010C942B010C942B010C942B0160
:100070000C942B010C942B010C942B010C942B0150
:100080000C942B010C942B010C942B010C942B0140
:100090000C942B010C942B010C942B010C942B0130
:1000A0000C942B010C942B010C942B010C942B0120
:1000B0000C942B010C942B010C942B010C942B0110
:1000C0000C942B010C942B010C942B010C942B0100
:1000D0000C942B010C942B010C942B010C942B01F0
:1000E0000C942B010C9478010C947F010C94590111
:1000F0000C94A1010C9493010C94A5010C9497010C
:100100000C94AB010C949D010C947C010C94740133
:100110000C948F010C9470010C94AF010C945E014F
:100120000C9485010C948901000021002400270013
:100130002A002D00300033000101000004010701F6
:100140000A0100002200250028002B002E003100AB
:10015000340002010000050108010B010505050539
:10016000070508080808020202020A0A080804042F
:10017000040401010101010101010303030303035D
:100180000303040707070C0C0C0C0C0C0C0C0202EC
:10019000020206060606060606060B0B0B0B0B0BE9
:1001A0000B0B010210202008081020401020408076
:1001B000020102010804020101020408102040802B
:1001C00080402010080402018004020180402010B9
:1001D0000804020108040201010204081020408002
:1001E000010204081020408000000A0B02090C0DD7
:1001F0000E080703040100000000000000000000DA
:1002000000000000000000000000000000000000EE
:1002100000000000121110000000000000000000AB
:100220000000000000000000000000000000112499
:100230001FBECFEFD1E2DEBFCDBF00E00CBF22E09A
:10024000A0E0B2E001C01D92AA30B207E1F70E941F
:1002500085020C949D030C940000382FECEEF1E025
:100260008491E6EAF1E02491E0E6F1E094919923AB
:1002700009F435C0882311F181508231F8F4E82F58
:10028000F0E08827E95BFE4F8F4F0C9495037801CF
:100290007C015901700174015E017F0185018901B2
:1002A0008F01930197019D01A1015E01A501AB01A1
:1002B000AF01809180008F7780938000E92FF0E07C
:1002C000EE0FFF1FEE5BFE4FA591B4918FB7F89430
:1002D000EC91311148C020952E232C938FBF0895A7
:1002E000809180008F7DE8CF80918000877FE4CF70
:1002F00084B58F7784BDE2CF84B58F7DFBCF8091AD
:10030000B0008F778093B000D9CF8091B0008F7DFF
:10031000F9CF809190008F7780939000CFCF80911C
:1003200090008F7DF9CF80919000877FF5CF8091ED
:10033000A0008F778093A000C1CF8091A0008F7D17
:10034000F9CF8091A000877FF5CF809120018F7732
:1003500080932001B3CF809120018F7DF9CF8091D0
:100360002001877FF5CF2E2BB8CF3FB7F89480912F
:10037000050290910602A0910702B091080226B5ED
:10038000A89B05C02F3F19F00196A11DB11D3FBFCD
:10039000BA2FA92F982F8827BC01CD01620F711D9C
:1003A000811D911D42E0660F771F881F991F4A9596
:1003B000D1F708958F929F92AF92BF92CF92DF9222
:1003C000EF92FF920E94B5014B015C0184E6C82EBA
:1003D000D12CE12CF12C0E94B501681979098A0908
:1003E0009B09683E734081059105A8F321E0C21A7C
:1003F000D108E108F10888EE880E83E0981EA11C60
:10040000B11CC114D104E104F10429F7FF90EF906D
:10041000DF90CF90BF90AF909F908F9008958823EA
:10042000A1F08130A1F08230A1F08330A1F08430BE
:10043000A1F08530A1F08630A1F08730A1F088309E
:10044000A1F08930A1F08FEF089581E008958FE445
:10045000089582E1089586E008958CE4089584E289
:10046000089580E208958FE0089580E008958CE07B
:1004700008950C947B031F920F920FB60F921124D4
:100480002F933F938F939F93AF93BF9380910102DC
:1004900090910202A0910302B091040230910002F7
:1004A00023E0230F2D3758F50196A11DB11D209390
:1004B00000028093010290930202A0930302B09382
:1004C00004028091050290910602A0910702B0916A
:1004D00008020196A11DB11D8093050290930602AA
:1004E000A0930702B0930802BF91AF919F918F91A3
:1004F0003F912F910F900FBE0F901F90189526E8F7
:10050000230F0296A11DB11DD2CF789484B58260CD
:1005100084BD84B5816084BD85B5826085BD85B5A7
:10052000816085BD80916E00816080936E00109225
:1005300081008091810082608093810080918100A0
:100540008160809381008091800081608093800031
:100550008091B10084608093B1008091B00081608F
:100560008093B0008091910082608093910080918F
:1005700091008160809391008091900081608093D0
:1005800090008091A10082608093A1008091A100E1
:1005900081608093A1008091A00081608093A00081
:1005A00080912101826080932101809121018160ED
:1005B00080932101809120018160809320018091AE
:1005C0007A00846080937A0080917A0082608093C0
:1005D0007A0080917A00816080937A0080917A001D
:1005E000806880937A001092C1008FEF81B9809368
:1005F0000A0110BAE6EAF1E02491E0E6F1E0849124
:10060000882399F090E0880F991FFC01E85DFE4F68
:10061000A591B491FC01EE5BFE4F859194918FB74B
:10062000F894EC91E22BEC938FBF12B810920B016F
:100630008FEF87B91AB868E090E080E00E94390235
:1006400069E181E090E00E94390260E282E090E09E
:100650000E94390260E183E090E00E94390260E785
:1006600084E090E00E94390260E085E090E00E9422
:10067000390264E186E090E00E94390264E087E09C
:1006800090E00E94390262EB88E090E00E9439021B
:10069000CAE000E010E00E94DA0180E00E942D0133
:1006A0000E94DA0181E00E942D0189B190E00E9450
:1006B000730388B98FB1809309026C2F0E9489035C
:1006C0000E940F0282B9809109026C2F0E94890357
:1006D000892F0E940F0280930B0101151105D9F299
:1006E0000E940000D8CFF999FECF92BD81BDF89A43
:1006F000992780B50895262FF999FECF1FBA92BD8C
:1007000081BD20BD0FB6F894FA9AF99A0FBE0196F2
:100710000895991B79E004C0991F961708F0961B5D
:10072000881F7A95C9F780950895EE0FFF1F881FDF
:0E0730008BBF0790F691E02D1994F894FFCF3F
:00000001FF
