:100000000C943B010C946C010C946C010C946C01ED
:100010000C946C010C946C010C946C010C946C01AC
:100020000C946C010C946C010C946C010C946C019C
:100030000C946C010C946C010C946C010C946C018C
:100040000C946C010C946C010C946C010C946C017C
:100050000C946C010C946C010C946C010C9455057F
:100060000C946C010C941F050C94F5040C946C0119
:100070000C946C010C946C010C946C010C946C014C
:100080000C946C010C946C010C946C010C946C013C
:100090000C946C010C946C010C946C010C946C012C
:1000A0000C946C010C946C010C946C010C946C011C
:1000B0000C946C010C946C010C946C010C946C010C
:1000C0000C946C010C946C010C946C010C946C01FC
:1000D0000C946C010C946C010C946C010C946C01EC
:1000E0000C946C010C9401030C94C0020C949B01C1
:1000F0000C946E010C94CC010C94FB020C94F30252
:100100000C94D5020C94E6040C94DB020C94D202FD
:100110000C9400030C94CE020C94CA020C94DF02DF
:100120000C9404020C94AA010C94E9020C94ED02C4
:100130000C949F050C94F7020C94BE010C94510290
:100140000C94C6020C9491030C9492030C94050336
:100150000C94E50200002100240027002A002D0055
:100160003000330001010000040107010A01000012
:100170002200250028002B002E003100340002014F
:100180000000050108010B010000200023002600EB
:1001900029002C002F00320000010000030106019D
:1001A00009010505050507050808080802020202FD
:1001B0000A0A080804040404010101010101010103
:1001C0000303030303030303040707070C0C0C0CCE
:1001D0000C0C0C0C020202020606060606060606B7
:1001E0000B0B0B0B0B0B0B0B010210202008081044
:1001F0002040102040800201020108040201010297
:10020000040810204080804020100804020180046F
:1002100002018040201008040201080402010102CA
:1002200004081020408001020408102040800000D3
:100230000A0B02090C0D0E08070304010000000060
:1002400000000000000000000000000000000000AE
:10025000000000000000000000001211100000006B
:10026000000000000000000000000000000000008E
:10027000000000009F0511241FBECFEFD1E2DEBFBA
:10028000CDBF00E00CBF12E0A0E0B2E0EAE2F5E191
:1002900000E00BBF02C007900D92A433B107D9F75D
:1002A00023E0A4E3B2E001C01D92AC31B207E1F754
:1002B00011E0CBE3D1E000E006C021970109802FD7
:1002C000FE010E948B0ACA33D10780E00807A9F714
:1002D0000E94E9050C94930A0C940000AF92BF921F
:1002E000CF92DF92EF92FF920F931F93CF93DF9302
:1002F0006C017B018B01040F151FEB015E01AE1831
:10030000BF08C017D10759F06991D601ED91FC9152
:100310000190F081E02DC6011995892B79F7C5016F
:10032000DF91CF911F910F91FF90EF90DF90CF90D1
:10033000BF90AF900895FC01538D448D252F30E080
:10034000842F90E0821B930B541710F0CF960895E2
:1003500001970895FC01918D828D981761F0A28D0F
:10036000AE0FBF2FB11D5D968C91928D9F5F9F73D5
:10037000928F90E008958FEF9FEF0895FC01918D8B
:10038000828D981731F0828DE80FF11D858D90E0F8
:1003900008958FEF9FEF0895FC01918D228D892F95
:1003A00090E0805C9F4F821B91098F73992708957D
:1003B00087E692E00E94CC0121E0892B09F420E03D
:1003C000822F0895FC01A48DA80FB92FB11DA35A47
:1003D000BF4F2C91848D90E001968F739927848F65
:1003E000A689B7892C93A089B1898C918370806488
:1003F0008C93938D848D981306C00288F389E02D29
:1004000080818F7D80830895EF92FF920F931F93D9
:10041000CF93DF93EC0181E0888F9B8D8C8D9813B7
:100420001AC0E889F989808185FF15C09FB7F894C3
:10043000EE89FF896083E889F9898081837080640F
:1004400080839FBF81E090E0DF91CF911F910F915A
:10045000FF90EF900895F62E0B8D10E00F5F1F4F69
:100460000F731127E02E8C8D8E110CC00FB607FC78
:10047000FACFE889F989808185FFF5CFCE010E9406
:10048000E201F1CFEB8DEC0FFD2FF11DE35AFF4F91
:10049000F0829FB7F8940B8FEA89FB898081806294
:1004A000CFCFCF93DF93EC01888D8823B9F0AA8951
:1004B000BB89E889F9898C9185FD03C0808186FD1F
:1004C0000DC00FB607FCF7CF8C9185FFF2CF80816E
:1004D00085FFEDCFCE010E94E201E9CFDF91CF9100
:1004E000089580E090E0892B29F00E94D8018111C5
:1004F0000E94000080E090E0892B49F080E090E0CD
:10050000892B29F00E94000081110E94000080E0E8
:1005100090E0892B49F080E090E0892B29F00E943F
:10052000000081110E94000080E090E0892B49F0DA
:1005300080E090E0892B29F00E94000081110C944A
:10054000000008958150823108F05AC0E82FF0E091
:100550008827E255FD4F8F4F0C948B0ACE02D202B2
:10056000C002C602CA020003D502DB02DF02E502B6
:10057000E902ED02F302F7020003FB0201030503A7
:10058000809180008F778093800008958091800013
:100590008F7DF9CF80918000877FF5CF84B58F77ED
:1005A00084BD089584B58F7DFBCF8091B0008F7797
:1005B0008093B00008958091B0008F7DF9CF809135
:1005C00090008F77809390000895809190008F7DA8
:1005D000F9CF80919000877FF5CF8091A0008F7731
:1005E0008093A00008958091A0008F7DF9CF809125
:1005F000A000877FF5CF809120018F778093200125
:100600000895809120018F7DF9CF80912001877F0F
:10061000F5CFCF93DF93282F30E0F901E25DFD4F56
:100620008491F901E851FE4FD491F901EE55FE4F46
:10063000C491CC23A1F081110E94A202EC2FF0E022
:10064000EE0FFF1FE857FE4FA591B491EC91ED23FB
:1006500081E090E009F480E0DF91CF91089580E09F
:1006600090E0FACF1F93CF93DF93282F30E0F9016A
:10067000E25DFD4F8491F901E851FE4FD491F901FB
:10068000EE55FE4FC491CC23A9F0162F81110E9484
:10069000A202EC2FF0E0EE0FFF1FE259FE4FA591F2
:1006A000B4918FB7F894EC91111108C0D095DE2366
:1006B000DC938FBFDF91CF911F910895DE2BF8CF90
:1006C000CF93DF9390E0FC01E851FE4F24918E55CB
:1006D0009E4FFC0184918823D1F090E0880F991FF0
:1006E000FC01EC5AFE4FA591B491FC01E259FE4F7A
:1006F000C591D49161110EC09FB7F8948C91E22FEF
:10070000E0958E238C932881E223E8839FBFDF91BD
:10071000CF9108958FB7F894EC91E22BEC938FBFB3
:10072000F6CF089590E080E00895CF93DF93EC0139
:1007300060E08E810E94320361E08E810E9432036C
:1007400060E08E810E9432038BE891E00197F1F71F
:10075000DF91CF910895CF92DF92EF92FF920F93A6
:100760001F93CF93DF936C017C0187E0E80EF11CAF
:10077000D0E0C0E0062F10E0B8010C2E02C0759545
:1007800067950A94E2F76170F70181917F010E94F9
:1007900032032196C430D10579F7C601DF91CF919C
:1007A0001F910F91FF90EF90DF90CF900C949503E5
:1007B000CF92DF92EF92FF920F931F93CF93DF932D
:1007C000EC01F62E642F8C810E9432038D818F3FC5
:1007D00019F060E00E9432030F2D10E08F8584FF36
:1007E00025C06E0187E0C80ED11CF12CE12CB801A8
:1007F0000E2C02C0759567950A94E2F76170F601B8
:1008000081916F010E943203FFEFEF1AFF0A88E027
:10081000E816F10461F7CE01DF91CF911F910F919E
:10082000FF90EF90DF90CF900C949503B80184E097
:10083000759567958A95E1F7CE010E94AB036F2D00
:10084000CE01DF91CF911F910F91FF90EF90DF903C
:10085000CF900C94AB0340E0682F84E093E00C94BD
:10086000D803CF93DF93823029F4909113039860DB
:1008700090931303809317031092180380E48093DE
:10088000190380E180931A0380E580931B0361E0E4
:10089000809108030E946003809109038F3F19F043
:1008A00061E00E94600361E080910A030E9460039E
:1008B000C4E0D3E09E01245033408091130384FDB3
:1008C0000BC084E090E021962817390744F461E0DA
:1008D0008E810E946003EECF88E090E0F4CF8BE33E
:1008E0009DE00197F1F760E0809108030E943203D8
:1008F00060E080910A030E943203809109038F3FD8
:1009000019F060E00E9432038091130384FD39C026
:1009100063E084E093E00E94AB03CBE4D6E4CE0135
:100920000197F1F763E084E093E00E94AB03219725
:10093000F1F763E084E093E00E94AB0383E592E08B
:100940000197F1F762E084E093E00E94AB038091AD
:10095000130380620E942B0484E0809314038CE0D4
:100960000E942B0481E00E942B048BE39FE10197FE
:10097000F1F782E08093150386E0DF91CF910C942C
:100980002B0480620E942B048BE496E40197F1F71C
:100990008091130380620E942B0483E592E001970B
:1009A000F1F78091130380620E942B04D0CFE09175
:1009B0001703E23048F4E150F0E0EC5FFC4F94891B
:1009C000890F80680C942B04E1E0F6CF41E00E948F
:1009D000D80381E090E0089541E0682F84E093E03F
:1009E0000E94D80381E090E008951F920F920FB605
:1009F0000F9211240BB60F922F933F934F935F9357
:100A00006F937F938F939F93AF93BF93EF93FF93D6
:100A100087E692E00E94E201FF91EF91BF91AF91D2
:100A20009F918F917F916F915F914F913F912F9106
:100A30000F900BBE0F900FBE0F901F9018951F9236
:100A40000F920FB60F9211240BB60F922F938F9324
:100A50009F93EF93FF93E0917702F091780280816A
:100A6000E0917D02F0917E0282FD1DC09081809117
:100A700080028F5F8F7320918102821741F0E09195
:100A80008002F0E0E959FD4F958F80938002FF913D
:100A9000EF919F918F912F910F900BBE0F900FBEF2
:100AA0000F901F9018958081F2CF1F920F920FB672
:100AB0000F9211242F933F938F939F93AF93BF93E4
:100AC0008091390290913A02A0913B02B0913C0290
:100AD0003091380223E0230F2D3758F50196A11DE0
:100AE000B11D209338028093390290933A02A0936B
:100AF0003B02B0933C028091340290913502A09168
:100B00003602B09137020196A11DB11D80933402C7
:100B100090933502A0933602B0933702BF91AF9104
:100B20009F918F913F912F910F900FBE0F901F902B
:100B3000189526E8230F0296A11DB11DD2CFE7E636
:100B4000F2E01382128288EE93E0A0E0B0E08483AA
:100B50009583A683B7838CE092E09183808385ECB4
:100B600090E09587848784EC90E09787868780EC77
:100B700090E0918B808B81EC90E0938B828B82EC68
:100B800090E0958B848B86EC90E0978B868B118E12
:100B9000128E138E148EE4E0F3E0138212828EE143
:100BA00092E0918380838CE084838FEF85838BE058
:100BB000868385E0878384E0808783E0818782E085
:100BC00082871386148615861686178681E00C9414
:100BD0003104789484B5826084BD84B5816084BD1D
:100BE00085B5826085BD85B5816085BD80916E00CB
:100BF000816080936E0010928100809181008260FC
:100C00008093810080918100816080938100809138
:100C100080008160809380008091B1008460809327
:100C2000B1008091B00081608093B000809191000C
:100C30008260809391008091910081608093910007
:100C4000809190008160809390008091A1008260EB
:100C50008093A1008091A10081608093A100809188
:100C6000A00081608093A000809121018260809328
:100C700021018091210181608093210180912001D7
:100C800081608093200180917A00846080937A0053
:100C900080917A00826080937A0080917A008160EE
:100CA00080937A0080917A00806880937A00109215
:100CB000C10082E00E943104E0917702F091780255
:100CC00082E08083E0917302F09174021082E091DF
:100CD0007502F09176028FEC808310927F02E09192
:100CE0007B02F0917C0286E08083E0917902F091B2
:100CF0007A02808180618083E0917902F0917A02AA
:100D0000808188608083E0917902F0917A0280810D
:100D100080688083E0917902F0917A0280818F7DF2
:100D2000808360E08EE00E94600360E08FE00E94BC
:100D3000600360E080E10E94600360E081E10E9466
:100D4000600360E082E10E94600360E086E10E944F
:100D5000600360E087E10E94600360E088E10E9438
:100D6000600360E089E10E94600360E08AE10E9424
:100D7000600360E08BE10E94600360E08CE10E9410
:100D8000600360E08DE10E94600360E08FE10E94FB
:100D9000600360E080E20E94600360E081E20E9404
:100DA000600360E082E20E94600360E083E20E94F0
:100DB000600360E084E20E94600360E085E20E94DC
:100DC000600360E086E20E9460034CE050E066E26F
:100DD00072E084E093E00E946E0180E00E94D704FC
:100DE0008EE00E940903EC019093660280936502F5
:100DF0008FE00E9409038C01909364028093630248
:100E000080E10E9409034C01909362028093610289
:100E100081E10E9409033C019093600280935F028C
:100E200082E10E9409037C0190935E0280935D023F
:100E300086E10E9409035C0190935C0280935B024F
:100E400087E10E9409032C0190935A028093590272
:100E500088E10E940903909358028093570289E128
:100E60000E94090390935602809355028AE10E94E2
:100E7000090390935402809353028BE10E9409036B
:100E800090935202809351028CE10E940903909347
:100E9000500280934F028DE10E94090390934E020D
:100EA00080934D028FE10E9409036C0190934C02E4
:100EB00080934B0280E20E9409031C0190934A0236
:100EC0008093490281E20E94090390934802809333
:100ED000470282E20E9409039093460280934502F2
:100EE00083E20E940903909344028093430284E2C8
:100EF0000E940903909342028093410285E20E947E
:100F000009039093400280933F0286E20E94090306
:100F100090933E0280933D02209799F401151105AC
:100F200081F48114910469F46114710451F4E114A1
:100F3000F10439F480E00E94D704809100020E94FD
:100F4000EC04AB2809F0A7C2CA94CD2809F0A3C2CB
:100F5000C130D10581F00130110569F081E08816BA
:100F6000910449F081E06816710429F081E0E816E7
:100F7000F10409F090C280E00E94D7049801B3E028
:100F8000220F331FBA95E1F7CE0144E0880F991F75
:100F90004A95E1F7822B8E299401220F331F220FED
:100FA000331F822B9301220F331F822B70E4D72E25
:100FB000D80E8D2D0E94EC04D0920002209799F457
:100FC0000115110581F48114910469F4611471040F
:100FD00051F4E114F10439F481E00E94D7048091C6
:100FE00001020E94EC04452809F05DC22A942328DE
:100FF00009F059C2C130D10581F00130110569F005
:1010000081E08816910449F081E06816710429F0A6
:1010100081E0E816F10409F046C281E00E94D7049D
:10102000980163E0220F331F6A95E1F7CE0174E067
:10103000880F991F7A95E1F7822B8E299401220F50
:10104000331F220F331F822B9301220F331F822B5A
:10105000A0E4DA2ED80E8D2D0E94EC04D09201026D
:10106000C0904702D0904802A0905702B09058021A
:10107000209799F40115110581F48114910469F404
:101080006114710451F4E114F10439F482E00E9416
:10109000D704809102020E94EC04AB2809F00BC235
:1010A000CA94CD2809F007C2C130D10581F00130C2
:1010B000110569F081E08816910449F081E0681615
:1010C000710429F081E0E816F10409F0F4C182E02E
:1010D0000E94D7049801F3E0220F331FFA95E1F73D
:1010E000CE01A4E0880F991FAA95E1F7822B8E29E3
:1010F0009401220F331F220F331F822B9301220FE3
:10110000331F822B50E4D52ED80E8D2D0E94EC0477
:10111000D0920202C0904502D0904602A0905502A3
:10112000B0905602209799F40115110581F48114AD
:10113000910469F46114710451F4E114F10439F477
:1011400083E00E94D704809103020E94EC04AB2844
:1011500009F0B9C1CA94CD2809F0B5C1C130D10593
:1011600081F00130110569F081E08816910449F0A1
:1011700081E06816710429F081E0E816F10409F0B5
:10118000A2C183E00E94D704980143E0220F331FDD
:101190004A95E1F7CE0154E0880F991F5A95E1F77F
:1011A000822B8E299401220F331F220F331F822B93
:1011B0009301220F331F822BE0E4DE2ED80E8D2DFB
:1011C0000E94EC04D0920302C0904302D0904402EB
:1011D000A0905302B0905402209799F40115110584
:1011E00081F48114910469F46114710451F4E114DF
:1011F000F10439F484E00E94D704809104020E9433
:10120000EC04AB2809F067C1CA94CD2809F063C18A
:10121000C130D10581F00130110569F081E08816F7
:10122000910449F081E06816710429F081E0E81624
:10123000F10409F050C184E00E94D7049801E3E072
:10124000220F331FEA95E1F7CE01F4E0880F991FD2
:10125000FA95E1F7822B8E299401220F331F220F7A
:10126000331F822B9301220F331F822B90E4D92E40
:10127000D80E8D2D0E94EC04D0920402C090410241
:10128000D0904202A0905102B0905202209799F45F
:101290000115110581F48114910469F4611471043C
:1012A00051F4E114F10439F485E00E94D7048091EF
:1012B00005020E94EC04AB2809F015C1CA94CD28A0
:1012C00009F011C1C130D10581F00130110569F07B
:1012D00081E08816910449F081E06816710429F0D4
:1012E00081E0E816F10409F0FEC085E00E94D70411
:1012F0009801B3E0220F331FBA95E1F7CE0144E025
:10130000880F991F4A95E1F7822B8E299401220FAD
:10131000331F220F331F822B9301220F331F822B87
:1013200070E4D72ED80E8D2D0E94EC04D0920502C9
:10133000C0903F02D0904002A0904F02B090500267
:10134000209799F40115110581F48114910469F431
:101350006114710451F4E114F10439F486E00E943F
:10136000D704809106020E94EC04AB2809F0C3C0A8
:10137000CA94CD2809F0BFC0C130D10581F0013039
:10138000110569F081E08816910449F081E0681642
:10139000710429F081E0E816F10409F0ACC086E0A0
:1013A0000E94D704980163E0220F331F6A95E1F78A
:1013B000CE0174E0880F991F7A95E1F7822B8E2970
:1013C0009401220F331F220F331F822B9301220F10
:1013D000331F822BA0E4DA2ED80E8D2D0E94EC0450
:1013E000D0920602C0903D02D0903E02A0904D02E5
:1013F000B0904E02209799F40115110581F48114E3
:10140000910469F46114710451F4E114F10439F4A4
:1014100087E00E94D704809107020E94EC04AB2869
:1014200009F071C0CA94CD2809F06DC0C130D10552
:1014300081F00130110569F081E08816910449F0CE
:1014400081E06816710429F081E0E816F10409F0E2
:101450005AC087E00E94D704CE0124E0880F991F6C
:101460002A95E1F733E0000F111F3A95E1F7802B41
:101470008E29880C991C880C991C8829660C771C6D
:101480008629C0E4C80F8C2F0E94EC04C093070289
:101490000E947102A5CC80E00E94D70480910002D6
:1014A0000E94EC048BCD81E00E94D7048091010260
:1014B0000E94EC04D5CD82E00E94D7048091020204
:1014C0000E94EC0427CE83E00E94D704809103029F
:1014D0000E94EC0479CE84E00E94D704809104023B
:1014E0000E94EC04CBCE85E00E94D70480910502D7
:1014F0000E94EC041DCF86E00E94D7048091060272
:101500000E94EC046FCF87E00E94D704809107020D
:101510000E94EC04BDCFEE0FFF1F881F8BBF07900A
:0A152000F691E02D1994F894FFCF26
:10152A005F5F5F5F5F5F5F5F0000000004026E0144
:10153A009B015102CC01AA01BE0100000000E60491
:10154A006E019203910348616E676D616E20476177
:04155A006D650000BB
:00000001FF
