:100000000C9472000C947E000C947E000C947E0084
:100010000C947E000C947E000C947E000C947E0068
:100020000C947E000C947E000C947E000C947E0058
:100030000C947E000C947E000C947E000C947E0048
:100040000C947E000C947E000C947E000C947E0038
:100050000C947E000C947E000C947E000C947E0028
:100060000C947E000C947E000C947E000C947E0018
:100070000C947E000C947E000C947E000C947E0008
:100080000C947E000C947E000C947E000C947E00F8
:100090000C947E000C947E000C947E000C947E00E8
:1000A0000C947E000C947E000C947E000C947E00D8
:1000B0000C947E000C947E000C947E000C947E00C8
:1000C0000C947E000C947E000C947E000C947E00B8
:1000D0000C947E000C947E000C947E000C947E00A8
:1000E0000C947E0011241FBECFEFD1E2DEBFCDBF46
:1000F00000E00CBF0E9480000C94B4000C9400003F
:100100008CEF81B917B88FEF8AB986E094E022E0CE
:10011000009B10C001990EC03BB11BB83AE03A9564
:10012000F1F700C0589A35E33A95F1F700003BB17A
:100130001BB8EECF019BECCF0099EACF309902C0FB
:10014000319BF6CF309902C0319908C0309908C070
:10015000309BDECF319BDCCF8BB9DACF2BB9D8CF38
:0C0160003199F6CF9BB9D4CFF894FFCFB3
:00000001FF
