:100000000C943B010C946C010C946C010C946C01ED
:100010000C946C010C946C010C946C010C946C01AC
:100020000C946C010C946C010C946C010C946C019C
:100030000C946C010C946C010C946C010C946C018C
:100040000C946C010C946C010C946C010C946C017C
:100050000C946C010C946C010C946C010C94620572
:100060000C946C010C942C050C9402050C946C01FE
:100070000C946C010C946C010C946C010C946C014C
:100080000C946C010C946C010C946C010C946C013C
:100090000C946C010C946C010C946C010C946C012C
:1000A0000C946C010C946C010C946C010C946C011C
:1000B0000C946C010C946C010C946C010C946C010C
:1000C0000C946C010C946C010C946C010C946C01FC
:1000D0000C946C010C946C010C946C010C946C01EC
:1000E0000C946C010C9401030C94C0020C949B01C1
:1000F0000C946E010C94CC010C94FB020C94F30252
:100100000C94D5020C94F3040C94DB020C94D202F0
:100110000C9400030C94CE020C94CA020C94DF02DF
:100120000C9404020C94AA010C94E9020C94ED02C4
:100130000C94AC050C94F7020C94BE010C94510283
:100140000C94C6020C9491030C9492030C94050336
:100150000C94E50200002100240027002A002D0055
:100160003000330001010000040107010A01000012
:100170002200250028002B002E003100340002014F
:100180000000050108010B010000200023002600EB
:1001900029002C002F00320000010000030106019D
:1001A00009010505050507050808080802020202FD
:1001B0000A0A080804040404010101010101010103
:1001C0000303030303030303040707070C0C0C0CCE
:1001D0000C0C0C0C020202020606060606060606B7
:1001E0000B0B0B0B0B0B0B0B010210202008081044
:1001F0002040102040800201020108040201010297
:10020000040810204080804020100804020180046F
:1002100002018040201008040201080402010102CA
:1002200004081020408001020408102040800000D3
:100230000A0B02090C0D0E08070304010000000060
:1002400000000000000000000000000000000000AE
:10025000000000000000000000001211100000006B
:10026000000000000000000000000000000000008E
:1002700000000000AC0511241FBECFEFD1E2DEBFAD
:10028000CDBF00E00CBF12E0A0E0B2E0E0E5F6E197
:1002900000E00BBF02C007900D92A234B107D9F75E
:1002A00023E0A2E4B2E001C01D92AE32B207E1F752
:1002B00011E0CBE3D1E000E006C021970109802FD7
:1002C000FE010E941E0BCA33D10780E00807A9F780
:1002D0000E94F6050C94260B0C940000AF92BF927E
:1002E000CF92DF92EF92FF920F931F93CF93DF9302
:1002F0006C017B018B01040F151FEB015E01AE1831
:10030000BF08C017D10759F06991D601ED91FC9152
:100310000190F081E02DC6011995892B79F7C5016F
:10032000DF91CF911F910F91FF90EF90DF90CF90D1
:10033000BF90AF900895FC01538D448D252F30E080
:10034000842F90E0821B930B541710F0CF960895E2
:1003500001970895FC01918D828D981761F0A28D0F
:10036000AE0FBF2FB11D5D968C91928D9F5F9F73D5
:10037000928F90E008958FEF9FEF0895FC01918D8B
:10038000828D981731F0828DE80FF11D858D90E0F8
:1003900008958FEF9FEF0895FC01918D228D892F95
:1003A00090E0805C9F4F821B91098F73992708957D
:1003B00089E792E00E94CC0121E0892B09F420E03A
:1003C000822F0895FC01A48DA80FB92FB11DA35A47
:1003D000BF4F2C91848D90E001968F739927848F65
:1003E000A689B7892C93A089B1898C918370806488
:1003F0008C93938D848D981306C00288F389E02D29
:1004000080818F7D80830895EF92FF920F931F93D9
:10041000CF93DF93EC0181E0888F9B8D8C8D9813B7
:100420001AC0E889F989808185FF15C09FB7F894C3
:10043000EE89FF896083E889F9898081837080640F
:1004400080839FBF81E090E0DF91CF911F910F915A
:10045000FF90EF900895F62E0B8D10E00F5F1F4F69
:100460000F731127E02E8C8D8E110CC00FB607FC78
:10047000FACFE889F989808185FFF5CFCE010E9406
:10048000E201F1CFEB8DEC0FFD2FF11DE35AFF4F91
:10049000F0829FB7F8940B8FEA89FB898081806294
:1004A000CFCFCF93DF93EC01888D8823B9F0AA8951
:1004B000BB89E889F9898C9185FD03C0808186FD1F
:1004C0000DC00FB607FCF7CF8C9185FFF2CF80816E
:1004D00085FFEDCFCE010E94E201E9CFDF91CF9100
:1004E000089580E090E0892B29F00E94D8018111C5
:1004F0000E94000080E090E0892B49F080E090E0CD
:10050000892B29F00E94000081110E94000080E0E8
:1005100090E0892B49F080E090E0892B29F00E943F
:10052000000081110E94000080E090E0892B49F0DA
:1005300080E090E0892B29F00E94000081110C944A
:10054000000008958150823108F05AC0E82FF0E091
:100550008827E255FD4F8F4F0C941E0BCE02D2021E
:10056000C002C602CA020003D502DB02DF02E502B6
:10057000E902ED02F302F7020003FB0201030503A7
:10058000809180008F778093800008958091800013
:100590008F7DF9CF80918000877FF5CF84B58F77ED
:1005A00084BD089584B58F7DFBCF8091B0008F7797
:1005B0008093B00008958091B0008F7DF9CF809135
:1005C00090008F77809390000895809190008F7DA8
:1005D000F9CF80919000877FF5CF8091A0008F7731
:1005E0008093A00008958091A0008F7DF9CF809125
:1005F000A000877FF5CF809120018F778093200125
:100600000895809120018F7DF9CF80912001877F0F
:10061000F5CFCF93DF93282F30E0F901E25DFD4F56
:100620008491F901E851FE4FD491F901EE55FE4F46
:10063000C491CC23A1F081110E94A202EC2FF0E022
:10064000EE0FFF1FE857FE4FA591B491EC91ED23FB
:1006500081E090E009F480E0DF91CF91089580E09F
:1006600090E0FACF1F93CF93DF93282F30E0F9016A
:10067000E25DFD4F8491F901E851FE4FD491F901FB
:10068000EE55FE4FC491CC23A9F0162F81110E9484
:10069000A202EC2FF0E0EE0FFF1FE259FE4FA591F2
:1006A000B4918FB7F894EC91111108C0D095DE2366
:1006B000DC938FBFDF91CF911F910895DE2BF8CF90
:1006C000CF93DF9390E0FC01E851FE4F24918E55CB
:1006D0009E4FFC0184918823D1F090E0880F991FF0
:1006E000FC01EC5AFE4FA591B491FC01E259FE4F7A
:1006F000C591D49161110EC09FB7F8948C91E22FEF
:10070000E0958E238C932881E223E8839FBFDF91BD
:10071000CF9108958FB7F894EC91E22BEC938FBFB3
:10072000F6CF089590E080E00895FC01019000204C
:10073000E9F73197AF01481B590BBC0186E193E003
:100740000C946E01CF93DF93EC0160E08E810E94E8
:10075000320361E08E810E94320360E08E810E944C
:1007600032038BE891E00197F1F7DF91CF91089583
:10077000CF92DF92EF92FF920F931F93CF93DF936D
:100780006C017C0187E0E80EF11CD0E0C0E0062F90
:1007900010E0B8010C2E02C0759567950A94E2F737
:1007A0006170F70181917F010E9432032196C4306C
:1007B000D10579F7C601DF91CF911F910F91FF907D
:1007C000EF90DF90CF900C94A203CF92DF92EF9244
:1007D000FF920F931F93CF93DF93EC01F62E642FBC
:1007E0008C810E9432038D818F3F19F060E00E945E
:1007F00032030F2D10E08F8584FF25C06E0187E046
:10080000C80ED11CF12CE12CB8010E2C02C075953C
:1008100067950A94E2F76170F60181916F010E9479
:100820003203FFEFEF1AFF0A88E0E816F10461F7E0
:10083000CE01DF91CF911F910F91FF90EF90DF904C
:10084000CF900C94A203B80184E0759567958A95C2
:10085000E1F7CE010E94B8036F2DCE01DF91CF9159
:100860001F910F91FF90EF90DF90CF900C94B80301
:1008700040E0682F86E193E00C94E503CF93DF938B
:10088000823029F4909125039860909325038093FA
:10089000290310922A0380E480932B0380E1809344
:1008A0002C0380E580932D0361E080911A030E9460
:1008B000600380911B038F3F19F061E00E94600389
:1008C00061E080911C030E946003C6E1D3E09E01B9
:1008D000265133408091250384FD0BC084E090E0D5
:1008E00021962817390744F461E08E810E94600345
:1008F000EECF88E090E0F4CF8BE39DE00197F1F735
:1009000060E080911A030E94320360E080911C0332
:100910000E94320380911B038F3F19F060E00E9418
:1009200032038091250384FD39C063E086E193E0C2
:100930000E94B803CBE4D6E4CE010197F1F763E05F
:1009400086E193E00E94B8032197F1F763E086E126
:1009500093E00E94B80383E592E00197F1F762E02B
:1009600086E193E00E94B8038091250380620E9493
:10097000380484E0809326038CE00E94380481E0F0
:100980000E9438048BE39FE10197F1F782E08093A6
:10099000270386E0DF91CF910C94380480620E9497
:1009A00038048BE496E40197F1F780912503806287
:1009B0000E94380483E592E00197F1F780912503C6
:1009C00080620E943804D0CFE0912903E23048F4DD
:1009D000E150F0E0EA5EFC4F9489890F80680C9446
:1009E0003804E1E0F6CF41E00E94E50381E090E0C9
:1009F000089541E0682F86E193E00E94E50381E0DD
:100A000090E008951F920F920FB60F9211240BB62B
:100A10000F922F933F934F935F936F937F938F9397
:100A20009F93AF93BF93EF93FF9389E792E00E9468
:100A3000E201FF91EF91BF91AF919F918F917F91D3
:100A40006F915F914F913F912F910F900BBE0F903F
:100A50000FBE0F901F9018951F920F920FB60F9216
:100A600011240BB60F922F938F939F93EF93FF93C5
:100A7000E0918902F0918A028081E0918F02F091E9
:100A8000900282FD1DC09081809192028F5F8F73D2
:100A900020919302821741F0E0919202F0E0E75832
:100AA000FD4F958F80939202FF91EF919F918F91CF
:100AB0002F910F900BBE0F900FBE0F901F901895A7
:100AC0008081F2CF1F920F920FB60F9211242F93B5
:100AD0003F938F939F93AF93BF93809147029091E1
:100AE0004802A0914902B0914A023091460223E0A7
:100AF000230F2D3758F50196A11DB11D20934602F5
:100B00008093470290934802A0934902B0934A020F
:100B10008091420290914302A0914402B09145021B
:100B20000196A11DB11D8093420290934302A093B0
:100B30004402B0934502BF91AF919F918F913F9135
:100B40002F910F900FBE0F901F90189526E8230F3E
:100B50000296A11DB11DD2CFE9E7F2E01382128205
:100B600088EE93E0A0E0B0E084839583A683B7830A
:100B70008CE092E09183808385EC90E09587848778
:100B800084EC90E09787868780EC90E0918B808B57
:100B900081EC90E0938B828B82EC90E0958B848B40
:100BA00086EC90E0978B868B118E128E138E148EAE
:100BB000E6E1F3E0138212828EE192E0918380837A
:100BC0008CE084838FEF85838BE0868385E0878349
:100BD00084E0808783E0818782E0828713861486A1
:100BE00015861686178681E00C943E04CF93DF931A
:100BF00000D01F92CDB7DEB7789484B5826084BDF3
:100C000084B5816084BD85B5826085BD85B5816010
:100C100085BD80916E00816080936E00109281008E
:100C20008091810082608093810080918100816049
:100C3000809381008091800081608093800080910A
:100C4000B10084608093B1008091B0008160809396
:100C5000B00080919100826080939100809191001A
:100C600081608093910080919000816080939000DA
:100C70008091A10082608093A1008091A100816099
:100C80008093A1008091A00081608093A00080915A
:100C900021018260809321018091210181608093F4
:100CA00021018091200181608093200180917A0050
:100CB000846080937A0080917A00826080937A00C9
:100CC00080917A00816080937A0080917A008068B8
:100CD00080937A001092C10082E00E943E04E0916D
:100CE0008902F0918A0282E08083E0918502F0918E
:100CF00086021082E0918702F09188028FEC808357
:100D000010929102E0918D02F0918E0286E0808334
:100D1000E0918B02F0918C02808180618083E09170
:100D20008B02F0918C02808188608083E0918B023D
:100D3000F0918C02808180688083E0918B02F09139
:100D40008C0280818F7D808360E08EE00E94600352
:100D500060E08FE00E94600360E080E10E94600339
:100D600060E081E10E94600360E082E10E94600334
:100D700060E086E10E94600360E087E10E9460031A
:100D800060E088E10E94600360E089E10E94600306
:100D900060E08AE10E94600360E08BE10E946003F2
:100DA00060E08CE10E94600360E08DE10E946003DE
:100DB00060E08FE10E94600360E080E20E946003D7
:100DC00060E081E20E94600360E082E20E946003D2
:100DD00060E083E20E94600360E084E20E946003BE
:100DE00060E085E20E94600360E086E20E946003AA
:100DF00060E08EE10E94600360E087E20E94600391
:100E000086E292E00E94950380E00E94E4048EE076
:100E10000E9409039C838B839093780280937702CE
:100E20008FE00E9409038C019093760280937502F3
:100E300080E10E9409034C01909374028093730235
:100E400081E10E9409033C01909372028093710238
:100E500082E10E9409037C019093700280936F02EB
:100E60008DE10E9409035C0190936E0280936D02F4
:100E70008CE10E9409032C0190936C0280936B0219
:100E80008BE10E94090390936A02809369028AE1D0
:100E90000E940903909368028093670289E10E948F
:100EA0000903909366028093650288E10E9409031A
:100EB000909364028093630287E10E9409039093F8
:100EC00062028093610286E10E94090390936002AE
:100ED00080935F028FE10E9409036C0190935E0290
:100EE00080935D0280E20E9409031C0190935C02E2
:100EF00080935B0281E20E94090390935A028093DF
:100F0000590282E20E94090390935802809357028B
:100F100083E20E940903909356028093550284E273
:100F20000E940903909354028093530285E20E9429
:100F30000903909352028093510286E20E940903B2
:100F40009093500280934F028EE10E9409039A838E
:100F5000898390934E0280934D0287E20E94090399
:100F600090934C0280934B0289819A81019709F0FA
:100F7000DEC28B819C81892B99F40115110581F4C6
:100F80008114910469F46114710451F4E114F104C1
:100F900039F480E00E94E404809107020E94F90481
:100FA000AB2809F00BC3CA94CD2809F007C38B8185
:100FB0009C81019781F00130110569F091E089165B
:100FC000910449F021E06216710429F081E0E816ED
:100FD000F10409F0F3C280E00E94E4049801B3E058
:100FE000220F331FBA95E1F78B819C8144E0880F73
:100FF000991F4A95E1F7822B8E299401220F331F06
:10100000220F331F822B9301220F331F822B70E498
:10101000D72ED80E8D2D0E94F904D09207028B8115
:101020009C81892B99F40115110581F48114910497
:1010300069F46114710451F4E114F10439F481E0AC
:101040000E94E404809106020E94F904452809F0F8
:10105000BDC22A94232809F0B9C28B819C810197D3
:1010600081F00130110569F091E08916910449F091
:1010700021E06216710429F081E0E816F10409F01C
:10108000A5C281E00E94E404980163E0220F331FAF
:101090006A95E1F78B819C8174E0880F991F7A959E
:1010A000E1F7822B8E299401220F331F220F331F69
:1010B000822B9301220F331F822BA0E4DA2ED80E4D
:1010C0008D2D0E94F904D0920602C0905902D09052
:1010D0005A02A0906902B0906A028B819C81892B90
:1010E00099F40115110581F48114910469F46114D6
:1010F000710451F4E114F10439F482E00E94E40433
:10110000809105020E94F904AB2809F067C2CA94D5
:10111000CD2809F063C28B819C81019781F0013059
:10112000110569F091E08916910449F021E06216F9
:10113000710429F081E0E816F10409F04FC282E061
:101140000E94E4049801F3E0220F331FFA95E1F7BF
:101150008B819C81A4E0880F991FAA95E1F7822BCF
:101160008E299401220F331F220F331F822B9301EC
:10117000220F331F822B50E4D52ED80E8D2D0E94C6
:10118000F904D0920502C0905702D0905802A09066
:101190006702B09068028B819C81892B99F40115BC
:1011A000110581F48114910469F46114710451F4FE
:1011B000E114F10439F483E00E94E4048091040214
:1011C0000E94F904AB2809F011C2CA94CD2809F095
:1011D0000DC28B819C81019781F00130110569F06E
:1011E00091E08916910449F021E06216710429F01A
:1011F00081E0E816F10409F0F9C183E00E94E404FB
:10120000980143E0220F331F4A95E1F78B819C81BF
:1012100054E0880F991F5A95E1F7822B8E2994018B
:10122000220F331F220F331F822B9301220F331FF4
:10123000822BE0E4DE2ED80E8D2D0E94F904D09290
:101240000402C0905502D0905602A0906502B09062
:1012500066028B819C81892B99F40115110581F41B
:101260008114910469F46114710451F4E114F104DE
:1012700039F484E00E94E404809103020E94F9049E
:10128000AB2809F0BBC1CA94CD2809F0B7C18B8146
:101290009C81019781F00130110569F091E0891678
:1012A000910449F021E06216710429F081E0E8160A
:1012B000F10409F0A3C184E00E94E4049801E3E092
:1012C000220F331FEA95E1F78B819C81F4E0880FB0
:1012D000991FFA95E1F7822B8E299401220F331F73
:1012E000220F331F822B9301220F331F822B90E496
:1012F000D92ED80E8D2D0E94F904D0920302C090F1
:101300005302D0905402A0906302B09064028B818B
:101310009C81892B99F40115110581F481149104A4
:1013200069F46114710451F4E114F10439F485E0B5
:101330000E94E404809102020E94F904AB2809F0A3
:1013400065C1CA94CD2809F061C18B819C81019748
:1013500081F00130110569F091E08916910449F09E
:1013600021E06216710429F081E0E816F10409F029
:101370004DC185E00E94E4049801B3E0220F331FC1
:10138000BA95E1F78B819C8144E0880F991F4A95BB
:10139000E1F7822B8E299401220F331F220F331F76
:1013A000822B9301220F331F822B70E4D72ED80E8D
:1013B0008D2D0E94F904D0920202C0905102D0906B
:1013C0005202A0906102B09062028B819C81892BB5
:1013D00099F40115110581F48114910469F46114E3
:1013E000710451F4E114F10439F486E00E94E4043C
:1013F000809101020E94F904AB2809F00FC1CA9440
:10140000CD2809F00BC18B819C81019781F00130BF
:10141000110569F091E08916910449F021E0621606
:10142000710429F081E0E816F10409F0F7C086E0C4
:101430000E94E404980163E0220F331F6A95E1F7EC
:101440008B819C8174E0880F991F7A95E1F7822B3C
:101450008E299401220F331F220F331F822B9301F9
:10146000220F331F822BA0E4DA2ED80E8D2D0E947E
:10147000F904D0920102C0904F02D0905002A09087
:101480005F02B09060028B819C81892B99F40115D9
:10149000110581F48114910469F46114710451F40B
:1014A000E114F10439F487E00E94E4048091000221
:1014B0000E94F904AB2809F0B9C0CA94CD2809F0FC
:1014C000B5C08B819C81019781F00130110569F0D5
:1014D00091E08916910449F021E06216710429F027
:1014E00081E0E816F10409F0A1C087E00E94E4045D
:1014F0008B819C8124E0880F991F2A95E1F733E0C6
:10150000000F111F3A95E1F7802B8E29880C991C4A
:10151000880C991C8829660C771C862920E4280FE2
:101520002983822F0E94F90489818093000280918F
:101530004D0290914E02892B51F480E00E94E40408
:101540008EE292E00E94950380E00E94E404809184
:101550004B0290914C02019771F5809107028F35F3
:10156000E1F0809106028F35C1F0809105028F3540
:10157000A1F0809104028F3581F0809103028F35B4
:1015800061F0809102028F3541F0809101028F3528
:1015900021F0809100028F3571F481E00E943804BF
:1015A0008BE39FE10197F1F780E00E94E40487E379
:1015B00092E00E9495030E94710229CC80E00E9473
:1015C000E404809107020E94F90429CD81E00E9481
:1015D000E404809106020E94F90477CD82E00E9423
:1015E000E404809105020E94F904CDCD83E00E94BD
:1015F000E404809104020E94F90423CE84E00E9456
:10160000E404809103020E94F90479CE85E00E94EF
:10161000E404809102020E94F904CFCE86E00E9489
:10162000E404809101020E94F90425CF87E00E9422
:10163000E404809100020E94F90479CFEE0FFF1FAD
:10164000881F8BBF0790F691E02D1994F894FFCF77
:101650005F5F5F5F5F5F5F5F0000000004026E011D
:101660009B015102CC01AA01BE0100000000F3045D
:101670006E019203910348414E474D414E00535431
:101680004F52414745210054525920414741494E4C
:02169000210037
:00000001FF
