:100000000C943B010C946C010C946C010C946C01ED
:100010000C946C010C946C010C946C010C946C01AC
:100020000C946C010C946C010C946C010C946C019C
:100030000C946C010C946C010C946C010C946C018C
:100040000C946C010C946C010C946C010C946C017C
:100050000C946C010C946C010C946C010C9457057D
:100060000C946C010C9421050C94F7040C946C0115
:100070000C946C010C946C010C946C010C946C014C
:100080000C946C010C946C010C946C010C946C013C
:100090000C946C010C946C010C946C010C946C012C
:1000A0000C946C010C946C010C946C010C946C011C
:1000B0000C946C010C946C010C946C010C946C010C
:1000C0000C946C010C946C010C946C010C946C01FC
:1000D0000C946C010C946C010C946C010C946C01EC
:1000E0000C946C010C94BE010C94D5020C949B01F1
:1000F0000C9401030C94CC010C94AA010C94F1040F
:100100000C9405030C9400030C946E010C94910361
:100110000C94CE020C94D2020C9404020C94CA02E9
:100120000C94DF020C94A1050C94ED020C94E902EE
:100130000C94FB020C9492030C94F7020C94F302BF
:100140000C94C6020C94DB020C9451020C94C00275
:100150000C94E50200002100240027002A002D0055
:100160003000330001010000040107010A01000012
:100170002200250028002B002E003100340002014F
:100180000000050108010B010000200023002600EB
:1001900029002C002F00320000010000030106019D
:1001A00009010505050507050808080802020202FD
:1001B0000A0A080804040404010101010101010103
:1001C0000303030303030303040707070C0C0C0CCE
:1001D0000C0C0C0C020202020606060606060606B7
:1001E0000B0B0B0B0B0B0B0B010210202008081044
:1001F0002040102040800201020108040201010297
:10020000040810204080804020100804020180046F
:1002100002018040201008040201080402010102CA
:1002200004081020408001020408102040800000D3
:100230000A0B02090C0D0E08070304010000000060
:1002400000000000000000000000000000000000AE
:10025000000000000000000000001211100000006B
:10026000000000000000000000000000000000008E
:1002700000000000A10511241FBECFEFD1E2DEBFB8
:10028000CDBF00E00CBF12E0A0E0B2E0E8E8FEE085
:1002900000E00BBF02C007900D92AE3AB107D9F74C
:1002A00023E0AEEAB2E001C01D92A037B207E1F749
:1002B00011E0CBE3D1E000E006C021970109802FD7
:1002C000FE010E943A07CA33D10780E00807A9F768
:1002D0000E94EC050C9442070C940000AF92BF9270
:1002E000CF92DF92EF92FF920F931F93CF93DF9302
:1002F0006C017B018B01040F151FEB015E01AE1831
:10030000BF08C017D10759F06991D601ED91FC9152
:100310000190F081E02DC6011995892B79F7C5016F
:10032000DF91CF911F910F91FF90EF90DF90CF90D1
:10033000BF90AF900895FC01538D448D252F30E080
:10034000842F90E0821B930B541710F0CF960895E2
:1003500001970895FC01918D828D981761F0A28D0F
:10036000AE0FBF2FB11D5D968C91928D9F5F9F73D5
:10037000928F90E008958FEF9FEF0895FC01918D8B
:10038000828D981731F0828DE80FF11D858D90E0F8
:1003900008958FEF9FEF0895FC01918D228D892F95
:1003A00090E0805C9F4F821B91098F73992708957D
:1003B0008BEB92E00E94CC0121E0892B09F420E034
:1003C000822F0895FC01A48DA80FB92FB11DA35A47
:1003D000BF4F2C91848D90E001968F739927848F65
:1003E000A689B7892C93A089B1898C918370806488
:1003F0008C93938D848D981306C00288F389E02D29
:1004000080818F7D80830895EF92FF920F931F93D9
:10041000CF93DF93EC0181E0888F9B8D8C8D9813B7
:100420001AC0E889F989808185FF15C09FB7F894C3
:10043000EE89FF896083E889F9898081837080640F
:1004400080839FBF81E090E0DF91CF911F910F915A
:10045000FF90EF900895F62E0B8D10E00F5F1F4F69
:100460000F731127E02E8C8D8E110CC00FB607FC78
:10047000FACFE889F989808185FFF5CFCE010E9406
:10048000E201F1CFEB8DEC0FFD2FF11DE35AFF4F91
:10049000F0829FB7F8940B8FEA89FB898081806294
:1004A000CFCFCF93DF93EC01888D8823B9F0AA8951
:1004B000BB89E889F9898C9185FD03C0808186FD1F
:1004C0000DC00FB607FCF7CF8C9185FFF2CF80816E
:1004D00085FFEDCFCE010E94E201E9CFDF91CF9100
:1004E000089580E090E0892B29F00E94D8018111C5
:1004F0000E94000080E090E0892B49F080E090E0CD
:10050000892B29F00E94000081110E94000080E0E8
:1005100090E0892B49F080E090E0892B29F00E943F
:10052000000081110E94000080E090E0892B49F0DA
:1005300080E090E0892B29F00E94000081110C944A
:10054000000008958150823108F05AC0E82FF0E091
:100550008827E255FD4F8F4F0C943A07CE02D20206
:10056000C002C602CA020003D502DB02DF02E502B6
:10057000E902ED02F302F7020003FB0201030503A7
:10058000809180008F778093800008958091800013
:100590008F7DF9CF80918000877FF5CF84B58F77ED
:1005A00084BD089584B58F7DFBCF8091B0008F7797
:1005B0008093B00008958091B0008F7DF9CF809135
:1005C00090008F77809390000895809190008F7DA8
:1005D000F9CF80919000877FF5CF8091A0008F7731
:1005E0008093A00008958091A0008F7DF9CF809125
:1005F000A000877FF5CF809120018F778093200125
:100600000895809120018F7DF9CF80912001877F0F
:10061000F5CFCF93DF93282F30E0F901E25DFD4F56
:100620008491F901E851FE4FD491F901EE55FE4F46
:10063000C491CC23A1F081110E94A202EC2FF0E022
:10064000EE0FFF1FE857FE4FA591B491EC91ED23FB
:1006500081E090E009F480E0DF91CF91089580E09F
:1006600090E0FACF1F93CF93DF93282F30E0F9016A
:10067000E25DFD4F8491F901E851FE4FD491F901FB
:10068000EE55FE4FC491CC23A9F0162F81110E9484
:10069000A202EC2FF0E0EE0FFF1FE259FE4FA591F2
:1006A000B4918FB7F894EC91111108C0D095DE2366
:1006B000DC938FBFDF91CF911F910895DE2BF8CF90
:1006C000CF93DF9390E0FC01E851FE4F24918E55CB
:1006D0009E4FFC0184918823D1F090E0880F991FF0
:1006E000FC01EC5AFE4FA591B491FC01E259FE4F7A
:1006F000C591D49161110EC09FB7F8948C91E22FEF
:10070000E0958E238C932881E223E8839FBFDF91BD
:10071000CF9108958FB7F894EC91E22BEC938FBFB3
:10072000F6CF089590E080E00895FC01019000204C
:10073000E9F73197AF01481B590BBC0188E593E0FD
:100740000C946E01CF93DF93EC0160E08E810E94E8
:10075000320361E08E810E94320360E08E810E944C
:1007600032038BE891E00197F1F7DF91CF91089583
:10077000CF92DF92EF92FF920F931F93CF93DF936D
:100780006C017C0187E0E80EF11CD0E0C0E0062F90
:1007900010E0B8010C2E02C0759567950A94E2F737
:1007A0006170F70181917F010E9432032196C4306C
:1007B000D10579F7C601DF91CF911F910F91FF907D
:1007C000EF90DF90CF900C94A203CF92DF92EF9244
:1007D000FF920F931F93CF93DF93EC01F62E642FBC
:1007E0008C810E9432038D818F3F19F060E00E945E
:1007F00032030F2D10E08F8584FF25C06E0187E046
:10080000C80ED11CF12CE12CB8010E2C02C075953C
:1008100067950A94E2F76170F60181916F010E9479
:100820003203FFEFEF1AFF0A88E0E816F10461F7E0
:10083000CE01DF91CF911F910F91FF90EF90DF904C
:10084000CF900C94A203B80184E0759567958A95C2
:10085000E1F7CE010E94B8036F2DCE01DF91CF9159
:100860001F910F91FF90EF90DF90CF900C94B80301
:1008700040E0682F88E593E00C94E503CF93DF9385
:10088000613029F0909167039860909367036093BB
:100890006B0310926C0390E490936D0380936E034E
:1008A000805C80936F0361E080915C030E94600331
:1008B00080915D038F3F19F061E00E94600361E069
:1008C00080915E030E946003C8E5D3E09E01285535
:1008D00033408091670384FD0BC084E090E0219653
:1008E0002817390744F461E08E810E946003EECF3F
:1008F00088E090E0F4CF8BE39DE00197F1F760E0B2
:1009000080915C030E94320360E080915E030E944C
:10091000320380915D038F3F19F060E00E94320343
:100920008091670384FD39C063E088E593E00E940D
:10093000B803CBE4D6E4CE010197F1F763E088E594
:1009400093E00E94B8032197F1F763E088E593E014
:100950000E94B80383E592E00197F1F762E088E531
:1009600093E00E94B8038091670380620E9438047C
:1009700084E0809368038CE00E94380481E00E9448
:1009800038048BE39FE10197F1F782E080936903DC
:1009900086E0DF91CF910C94380480620E94380485
:1009A0008BE496E40197F1F78091670380620E94DF
:1009B000380483E592E00197F1F780916703806244
:1009C0000E943804D0CF90916B03891710F08FEFFD
:1009D000890FE82FF0E0E85AFC4F848980680C9476
:1009E000380441E00E94E50381E090E008951F9201
:1009F0000F920FB60F9211240BB60F922F933F93C5
:100A00004F935F936F937F938F939F93AF93BF9316
:100A1000EF93FF938BEB92E00E94E201FF91EF9145
:100A2000BF91AF919F918F917F916F915F914F9106
:100A30003F912F910F900BBE0F900FBE0F901F9004
:100A400018951F920F920FB60F9211240BB60F92AA
:100A50002F938F939F93EF93FF93E091CB02F091AD
:100A6000CC028081E091D102F091D20282FD1DC0C2
:100A700090818091D4028F5F8F732091D50282176D
:100A800041F0E091D402F0E0E554FD4F958F809362
:100A9000D402FF91EF919F918F912F910F900BBEF8
:100AA0000F900FBE0F901F9018958081F2CF1F926C
:100AB0000F920FB60F9211242F933F938F939F9312
:100AC000AF93BF938091B3029091B402A091B5020D
:100AD000B091B6023091B20223E0230F2D3758F5C2
:100AE0000196A11DB11D2093B2028093B302909391
:100AF000B402A093B502B093B6028091AE02909179
:100B0000AF02A091B002B091B1020196A11DB11D3A
:100B10008093AE029093AF02A093B002B093B10263
:100B2000BF91AF919F918F913F912F910F900FBEE9
:100B30000F901F90189526E8230F0296A11DB11D56
:100B4000D2CFEBEBF2E01382128288EE93E0A0E0CA
:100B5000B0E084839583A683B78384E092E0918399
:100B6000808385EC90E09587848784EC90E097877C
:100B7000868780EC90E0918B808B81EC90E0938B6A
:100B8000828B82EC90E0958B848B86EC90E0978B47
:100B9000868B118E128E138E148EE8E5F3E013828D
:100BA000128286E192E0918380838CE084838FEFD0
:100BB00085838BE0868385E0878384E0808783E07C
:100BC000818782E0828713861486158616861786AB
:100BD00061E080E10C943E04789484B5826084BD29
:100BE00084B5816084BD85B5826085BD85B5816031
:100BF00085BD80916E00816080936E0010928100AF
:100C00008091810082608093810080918100816069
:100C1000809381008091800081608093800080912A
:100C2000B10084608093B1008091B00081608093B6
:100C3000B00080919100826080939100809191003A
:100C400081608093910080919000816080939000FA
:100C50008091A10082608093A1008091A1008160B9
:100C60008093A1008091A00081608093A00080917A
:100C70002101826080932101809121018160809314
:100C800021018091200181608093200180917A0070
:100C9000846080937A0080917A00826080937A00E9
:100CA00080917A00816080937A0080917A008068D8
:100CB00080937A001092C10064E084E10E943E04B7
:100CC000E091CB02F091CC0282E08083E091C702F8
:100CD000F091C8021082E091C902F091CA028FEC33
:100CE00080831092D302E091CF02F091D00286E08F
:100CF0008083E091CD02F091CE028081806180837B
:100D0000E091CD02F091CE02808188608083E091F5
:100D1000CD02F091CE02808180688083E091CD0287
:100D2000F091CE0280818F7D808360E089E00E9417
:100D3000600360E088E00E94600360E087E00E945A
:100D4000600380E00E94E3048EE192E00E9495033C
:100D500089E00E9409038C019093BA028093B90242
:100D600088E00E940903EC019093B8028093B702D7
:100D700087E00E94090301151105E1F4209739F578
:100D80000097B1F581E00E94E30480E392E00E94C5
:100D9000950382E00E94E30485E492E00E949503BB
:100DA00083E00E94E3048AE592E00E9495030E949A
:100DB0007102CECF01301105D1F7209779F5009758
:100DC000B9F581E00E94E3048FE692E0E0CF21973D
:100DD00071F70097B1F581E00E94E30480E392E0AF
:100DE0000E94950382E00E94E30484E892E0D6CF5B
:100DF0000197E9F681E00E94E30480E392E00E941B
:100E0000950382E00E94E30485E492E00E9495034A
:100E100083E00E94E30489E992E0C7CF219739F685
:100E20000097F9F481E00E94E3048FE692E0D8CFC6
:100E3000019709F0BCCF81E00E94E3048FE692E0C5
:100E4000DECF019709F0B3CF81E00E94E30480E395
:100E500092E00E94950382E00E94E30484E892E01D
:100E6000D5CF019709F0A3CF81E00E94E3048FE67C
:100E700092E0EFCFEE0FFF1F881F8BBF0790F69118
:080E8000E02D1994F894FFCF56
:100E88000000000004026E019B015102CC01AA017E
:100E9800BE0100000000F1046E01920391032020BE
:100EA80053656375726974792053797374656D003D
:100EB8004D6F74696F6E206E6F742064657465631E
:100EC8007465642E00476173206E6F7420646574C6
:100ED80065637465642E20202000536D6F6B652058
:100EE8006E6F742064657465637465642E20004DAC
:100EF8006F74696F6E2064657465637465642E2011
:100F080020202000476173206465746563746564FC
:100F18002E2020202020202000536D6F6B65206438
:0E0F2800657465637465642E2020202020000F
:00000001FF
