:100000000C943B010C946C010C946C010C946C01ED
:100010000C946C010C946C010C946C010C946C01AC
:100020000C946C010C946C010C946C010C946C019C
:100030000C946C010C946C010C946C010C946C018C
:100040000C946C010C946C010C946C010C946C017C
:100050000C946C010C946C010C946C010C94AF0525
:100060000C946C010C9479050C944F050C946C0164
:100070000C946C010C946C010C946C010C946C014C
:100080000C946C010C946C010C946C010C946C013C
:100090000C946C010C946C010C946C010C946C012C
:1000A0000C946C010C946C010C946C010C946C011C
:1000B0000C946C010C946C010C946C010C946C010C
:1000C0000C946C010C946C010C946C010C946C01FC
:1000D0000C946C010C946C010C946C010C946C01EC
:1000E0000C946C010C94ED020C94CE020C94CA0298
:1000F0000C9404020C94F3020C9451020C9400032F
:100100000C94D2020C94D5020C94CC010C94E50210
:100110000C9440050C94C6020C94BE010C94DB02B6
:100120000C94AA010C94E8030C949B010C94FB0220
:100130000C9401030C946E010C94F7020C94E903E7
:100140000C94DF020C94E9020C94C0020C94F905A3
:100150000C94050300002100240027002A002D0034
:100160003000330001010000040107010A01000012
:100170002200250028002B002E003100340002014F
:100180000000050108010B010000200023002600EB
:1001900029002C002F00320000010000030106019D
:1001A00009010505050507050808080802020202FD
:1001B0000A0A080804040404010101010101010103
:1001C0000303030303030303040707070C0C0C0CCE
:1001D0000C0C0C0C020202020606060606060606B7
:1001E0000B0B0B0B0B0B0B0B010210202008081044
:1001F0002040102040800201020108040201010297
:10020000040810204080804020100804020180046F
:1002100002018040201008040201080402010102CA
:1002200004081020408001020408102040800000D3
:100230000A0B02090C0D0E08070304010000000060
:1002400000000000000000000000000000000000AE
:10025000000000000000000000001211100000006B
:10026000000000000000000000000000000000008E
:1002700000000000F90511241FBECFEFD1E2DEBF60
:10028000CDBF00E00CBF12E0A0E0B2E0E8E3F8E18F
:1002900000E00BBF02C007900D92AC34B107D9F754
:1002A00023E0ACE4B2E001C01D92A833B207E1F74D
:1002B00011E0CBE3D1E000E006C021970109802FD7
:1002C000FE010E94040CCA33D10780E00807A9F799
:1002D0000E9443060C941A0C0C940000AF92BF923B
:1002E000CF92DF92EF92FF920F931F93CF93DF9302
:1002F0006C017B018B01040F151FEB015E01AE1831
:10030000BF08C017D10759F06991D601ED91FC9152
:100310000190F081E02DC6011995892B79F7C5016F
:10032000DF91CF911F910F91FF90EF90DF90CF90D1
:10033000BF90AF900895FC01538D448D252F30E080
:10034000842F90E0821B930B541710F0CF960895E2
:1003500001970895FC01918D828D981761F0A28D0F
:10036000AE0FBF2FB11D5D968C91928D9F5F9F73D5
:10037000928F90E008958FEF9FEF0895FC01918D8B
:10038000828D981731F0828DE80FF11D858D90E0F8
:1003900008958FEF9FEF0895FC01918D228D892F95
:1003A00090E0805C9F4F821B91098F73992708957D
:1003B00083E892E00E94CC0121E0892B09F420E03F
:1003C000822F0895FC01A48DA80FB92FB11DA35A47
:1003D000BF4F2C91848D90E001968F739927848F65
:1003E000A689B7892C93A089B1898C918370806488
:1003F0008C93938D848D981306C00288F389E02D29
:1004000080818F7D80830895EF92FF920F931F93D9
:10041000CF93DF93EC0181E0888F9B8D8C8D9813B7
:100420001AC0E889F989808185FF15C09FB7F894C3
:10043000EE89FF896083E889F9898081837080640F
:1004400080839FBF81E090E0DF91CF911F910F915A
:10045000FF90EF900895F62E0B8D10E00F5F1F4F69
:100460000F731127E02E8C8D8E110CC00FB607FC78
:10047000FACFE889F989808185FFF5CFCE010E9406
:10048000E201F1CFEB8DEC0FFD2FF11DE35AFF4F91
:10049000F0829FB7F8940B8FEA89FB898081806294
:1004A000CFCFCF93DF93EC01888D8823B9F0AA8951
:1004B000BB89E889F9898C9185FD03C0808186FD1F
:1004C0000DC00FB607FCF7CF8C9185FFF2CF80816E
:1004D00085FFEDCFCE010E94E201E9CFDF91CF9100
:1004E000089580E090E0892B29F00E94D8018111C5
:1004F0000E94000080E090E0892B49F080E090E0CD
:10050000892B29F00E94000081110E94000080E0E8
:1005100090E0892B49F080E090E0892B29F00E943F
:10052000000081110E94000080E090E0892B49F0DA
:1005300080E090E0892B29F00E94000081110C944A
:10054000000008958150823108F05AC0E82FF0E091
:100550008827E255FD4F8F4F0C94040CCE02D20237
:10056000C002C602CA020003D502DB02DF02E502B6
:10057000E902ED02F302F7020003FB0201030503A7
:10058000809180008F778093800008958091800013
:100590008F7DF9CF80918000877FF5CF84B58F77ED
:1005A00084BD089584B58F7DFBCF8091B0008F7797
:1005B0008093B00008958091B0008F7DF9CF809135
:1005C00090008F77809390000895809190008F7DA8
:1005D000F9CF80919000877FF5CF8091A0008F7731
:1005E0008093A00008958091A0008F7DF9CF809125
:1005F000A000877FF5CF809120018F778093200125
:100600000895809120018F7DF9CF80912001877F0F
:10061000F5CFCF93DF93282F30E0F901E25DFD4F56
:100620008491F901E851FE4FD491F901EE55FE4F46
:10063000C491CC23A1F081110E94A202EC2FF0E022
:10064000EE0FFF1FE857FE4FA591B491EC91ED23FB
:1006500081E090E009F480E0DF91CF91089580E09F
:1006600090E0FACF1F93CF93DF93282F30E0F9016A
:10067000E25DFD4F8491F901E851FE4FD491F901FB
:10068000EE55FE4FC491CC23A9F0162F81110E9484
:10069000A202EC2FF0E0EE0FFF1FE259FE4FA591F2
:1006A000B4918FB7F894EC91111108C0D095DE2366
:1006B000DC938FBFDF91CF911F910895DE2BF8CF90
:1006C000CF93DF9390E0FC01E851FE4F24918E55CB
:1006D0009E4FFC0184918823D1F090E0880F991FF0
:1006E000FC01EC5AFE4FA591B491FC01E259FE4F7A
:1006F000C591D49161110EC09FB7F8948C91E22FEF
:10070000E0958E238C932881E223E8839FBFDF91BD
:10071000CF9108958FB7F894EC91E22BEC938FBFB3
:10072000F6CF3FB7F8948091510290915202A09178
:100730005302B091540226B5A89B05C02F3F19F073
:100740000196A11DB11D3FBFBA2FA92F982F882751
:10075000BC01CD01620F711D811D911D42E0660F2C
:10076000771F881F991F4A95D1F708958F929F92FE
:10077000AF92BF92CF92DF92EF92FF924B015C015A
:100780000E9491036B017C010E9491036C197D0909
:100790008E099F09683E734081059105A8F321E009
:1007A000821A9108A108B10888EEC80E83E0D81E0D
:1007B000E11CF11C81149104A104B10429F7FF90FC
:1007C000EF90DF90CF90BF90AF909F908F90089563
:1007D000089590E080E00895CF93DF93EC0160E00E
:1007E0008E810E94320361E08E810E94320360E0BC
:1007F0008E810E9432038BE891E00197F1F7DF913F
:10080000CF910895CF92DF92EF92FF920F931F93B3
:10081000CF93DF936C017C0187E0E80EF11CD0E000
:10082000C0E0062F10E0B8010C2E02C07595679548
:100830000A94E2F76170F70181917F010E9432030F
:100840002196C430D10579F7C601DF91CF911F9170
:100850000F91FF90EF90DF90CF900C94EC03CF922C
:10086000DF92EF92FF920F931F93CF93DF93EC01F0
:10087000F62E642F8C810E9432038D818F3F19F0F8
:1008800060E00E9432030F2D10E08F8584FF25C0A9
:100890006E0187E0C80ED11CF12CE12CB8010E2CA2
:1008A00002C0759567950A94E2F76170F60181912F
:1008B0006F010E943203FFEFEF1AFF0A88E0E8168B
:1008C000F10461F7CE01DF91CF911F910F91FF905D
:1008D000EF90DF90CF900C94EC03B80184E0759515
:1008E00067958A95E1F7CE010E9402046F2DCE0133
:1008F000DF91CF911F910F91FF90EF90DF90CF90FC
:100900000C94020440E0682F80E293E00C942F04E2
:1009100081E00E9482048BE39FE10197F1F7089543
:10092000CF93DF93823029F490912F0398609093B6
:100930002F03809333031092340380E480933503B4
:1009400080E18093360380E58093370361E08091F6
:1009500024030E946003809125038F3F19F061E01A
:100960000E94600361E0809126030E946003C0E260
:10097000D3E09E012052334080912F0384FD0BC0B1
:1009800084E090E021962817390744F461E08E81D5
:100990000E946003EECF88E090E0F4CF8BE39DE00F
:1009A0000197F1F760E0809124030E94320360E038
:1009B000809126030E943203809125038F3F19F016
:1009C00060E00E94320380912F0384FD34C063E015
:1009D00080E293E00E940204CBE4D6E4CE010197CA
:1009E000F1F763E080E293E00E9402042197F1F7BF
:1009F00063E080E293E00E94020483E592E00197C5
:100A0000F1F762E080E293E00E94020480912F03FC
:100A100080620E94820484E0809330038CE00E9414
:100A200082040E94880482E08093310386E0DF9193
:100A3000CF910C94820480620E9482048BE496E43D
:100A40000197F1F780912F0380620E94820483E571
:100A500092E00197F1F780912F0380620E94820457
:100A6000D5CFE0913303E23048F4E150F0E0E05EAE
:100A7000FC4F9489890F80680C948204E1E0F6CFE2
:100A800041E00E942F0481E090E0089541E0682F4A
:100A900080E293E00E942F0481E090E008951F928D
:100AA0000F920FB60F9211240BB60F922F933F9314
:100AB0004F935F936F937F938F939F93AF93BF9366
:100AC000EF93FF9383E892E00E94E201FF91EF91A0
:100AD000BF91AF919F918F917F916F915F914F9156
:100AE0003F912F910F900BBE0F900FBE0F901F9054
:100AF00018951F920F920FB60F9211240BB60F92FA
:100B00002F938F939F93EF93FF93E0919302F09134
:100B100094028081E0919902F0919A0282FD1DC0B9
:100B2000908180919C028F5F8F7320919D0282172C
:100B300041F0E0919C02F0E0ED57FD4F958F8093DE
:100B40009C02FF91EF919F918F912F910F900BBE7F
:100B50000F900FBE0F901F9018958081F2CF1F92BB
:100B60000F920FB60F9211242F933F938F939F9361
:100B7000AF93BF9380914D0290914E02A0914F028E
:100B8000B091500230914C0223E0230F2D3758F5DD
:100B90000196A11DB11D20934C0280934D029093AC
:100BA0004E02A0934F02B093500280915102909157
:100BB0005202A0915302B09154020196A11DB11DA1
:100BC0008093510290935202A0935302B093540227
:100BD000BF91AF919F918F913F912F910F900FBE39
:100BE0000F901F90189526E8230F0296A11DB11DA6
:100BF000D2CFE3E8F2E01382128288EE93E0A0E025
:100C0000B0E084839583A683B7838CE092E09183E0
:100C1000808385EC90E09587848784EC90E09787CB
:100C2000868780EC90E0918B808B81EC90E0938BB9
:100C3000828B82EC90E0958B848B86EC90E0978B96
:100C4000868B118E128E138E148EE0E2F3E01382E7
:100C500012828EE192E0918380838CE084838FEF17
:100C600085838BE0868385E0878384E0808783E0CB
:100C7000818782E0828713861486158616861786FA
:100C800081E00C949004CF93DF9300D01F92CDB7F6
:100C9000DEB7789484B5826084BD84B5816084BDFC
:100CA00085B5826085BD85B5816085BD80916E000A
:100CB000816080936E00109281008091810082603B
:100CC0008093810080918100816080938100809178
:100CD00080008160809380008091B1008460809367
:100CE000B1008091B00081608093B000809191004C
:100CF0008260809391008091910081608093910047
:100D0000809190008160809390008091A10082602A
:100D10008093A1008091A10081608093A1008091C7
:100D2000A00081608093A000809121018260809367
:100D30002101809121018160809321018091200116
:100D400081608093200180917A00846080937A0092
:100D500080917A00826080937A0080917A0081602D
:100D600080937A0080917A00806880937A00109254
:100D7000C10082E00E949004E0919302F0919402FD
:100D800082E08083E0918F02F09190021082E091E6
:100D90009102F09192028FEC808310929B02E0917D
:100DA0009702F091980286E08083E0919502F0919D
:100DB0009602808180618083E0919502F091960295
:100DC000808188608083E0919502F0919602808115
:100DD00080688083E0919502F091960280818F7DFA
:100DE000808360E08EE00E94600360E08FE00E94FC
:100DF000600360E080E10E94600360E081E10E94A6
:100E0000600360E082E10E94600360E086E10E948E
:100E1000600360E087E10E94600360E088E10E9477
:100E2000600360E089E10E94600360E08AE10E9463
:100E3000600360E08BE10E94600360E08CE10E944F
:100E4000600360E08DE10E94600360E08FE10E943A
:100E5000600360E080E20E94600360E081E20E9443
:100E6000600360E082E20E94600360E083E20E942F
:100E7000600360E084E20E94600360E085E20E941B
:100E8000600360E086E20E94600360E08EE10E9401
:100E9000600360E087E20E94600361E088E20E94F4
:100EA000600347E050E066E272E080E293E00E9477
:100EB0006E0180E00E9431058EE00E9409039C8350
:100EC0008B8390938202809381028FE00E940903BA
:100ED0008C019093800280937F0280E10E9409033D
:100EE0004C0190937E0280937D0281E10E94090370
:100EF0003C0190937C0280937B0282E10E94090373
:100F00007C0190937A02809379028DE10E9409031B
:100F10005C0190937802809377028CE10E94090330
:100F20002C0190937602809375028BE10E94090355
:100F300090937402809373028AE10E940903909354
:100F400072028093710289E10E94090390937002FA
:100F500080936F0288E10E94090390936E02809350
:100F60006D0287E10E94090390936C0280936B02EB
:100F700086E10E94090390936A02809369028FE1DF
:100F80000E9409036C01909368028093670280E2DB
:100F90000E9409031C01909366028093650281E21E
:100FA0000E940903909364028093630282E20E948C
:100FB0000903909362028093610283E20E94090315
:100FC0009093600280935F0284E20E9409039093F1
:100FD0005E0280935D0285E20E94090390935C02A9
:100FE00080935B0286E20E94090390935A028093E9
:100FF00059028EE10E9409039A83898390935802D3
:101000008093570287E20E940903909356028093CF
:10101000550289819A81019709F005C38B819C81D2
:10102000019779F00130110561F091E08916910482
:1010300041F021E06216710421F081E0E816F1042C
:1010400051F461E088E20E94320362E370E080E0E4
:1010500090E00E94B6038B819C81892BE9F40115F5
:101060001105D1F481149104B9F461147104A1F44F
:10107000E114F10489F460E088E20E94320362E343
:1010800070E080E090E00E94B60380E00E943105AD
:10109000809107020E944605AB2809F015C3CA9447
:1010A000CD2809F011C38B819C81019781F001301B
:1010B000110569F091E08916910449F021E062166A
:1010C000710429F081E0E816F10409F0FDC280E026
:1010D0000E9431059801B3E0220F331FBA95E1F762
:1010E0008B819C8144E0880F991F4A95E1F7822B00
:1010F0008E299401220F331F220F331F822B93015D
:10110000220F331F822B70E4D72ED80E8D2D0E9414
:101110004605D09207028B819C81892B99F4011599
:10112000110581F48114910469F46114710451F47E
:10113000E114F10439F481E00E9431058091060246
:101140000E944605452809F0C7C22A94232809F0C1
:10115000C3C28B819C81019781F00130110569F038
:1011600091E08916910449F021E06216710429F09A
:1011700081E0E816F10409F0AFC281E00E94310578
:10118000980163E0220F331F6A95E1F78B819C8100
:1011900074E0880F991F7A95E1F7822B8E299401CC
:1011A000220F331F220F331F822B9301220F331F75
:1011B000822BA0E4DA2ED80E8D2D0E944605D09207
:1011C0000602C0906302D0906402A0907302B090B7
:1011D00074028B819C81892B99F40115110581F48E
:1011E0008114910469F46114710451F4E114F1045F
:1011F00039F482E00E943105809105020E94460583
:10120000AB2809F071C2CA94CD2809F06DC28B8158
:101210009C81019781F00130110569F091E08916F8
:10122000910449F021E06216710429F081E0E8168A
:10123000F10409F059C282E00E9431059801F3E0FF
:10124000220F331FFA95E1F78B819C81A4E0880F70
:10125000991FAA95E1F7822B8E299401220F331F43
:10126000220F331F822B9301220F331F822B50E456
:10127000D52ED80E8D2D0E944605D0920502C09025
:101280006102D0906202A0907102B09072028B81D4
:101290009C81892B99F40115110581F48114910425
:1012A00069F46114710451F4E114F10439F483E038
:1012B0000E943105809104020E944605AB2809F086
:1012C0001BC2CA94CD2809F017C28B819C8101975B
:1012D00081F00130110569F091E08916910449F01F
:1012E00021E06216710429F081E0E816F10409F0AA
:1012F00003C283E00E943105980143E0220F331FAF
:101300004A95E1F78B819C8154E0880F991F5A958B
:10131000E1F7822B8E299401220F331F220F331FF6
:10132000822B9301220F331F822BE0E4DE2ED80E96
:101330008D2D0E944605D0920402C0905F02D0908D
:101340006002A0906F02B09070028B819C81892B0B
:1013500099F40115110581F48114910469F4611463
:10136000710451F4E114F10439F484E00E94310570
:10137000809103020E944605AB2809F0C5C1CA94BA
:10138000CD2809F0C1C18B819C81019781F001308A
:10139000110569F091E08916910449F021E0621687
:1013A000710429F081E0E816F10409F0ADC184E090
:1013B0000E9431059801E3E0220F331FEA95E1F71F
:1013C0008B819C81F4E0880F991FFA95E1F7822BBD
:1013D0008E299401220F331F220F331F822B93017A
:1013E000220F331F822B90E4D92ED80E8D2D0E9410
:1013F0004605D0920302C0905D02D0905E02A0909C
:101400006D02B0906E028B819C81892B99F401153D
:10141000110581F48114910469F46114710451F48B
:10142000E114F10439F485E00E9431058091020253
:101430000E944605AB2809F06FC1CA94CD2809F077
:101440006BC18B819C81019781F00130110569F09E
:1014500091E08916910449F021E06216710429F0A7
:1014600081E0E816F10409F057C185E00E943105DA
:101470009801B3E0220F331FBA95E1F78B819C816D
:1014800044E0880F991F4A95E1F7822B8E29940139
:10149000220F331F220F331F822B9301220F331F82
:1014A000822B70E4D72ED80E8D2D0E944605D09247
:1014B0000202C0905B02D0905C02A0906B02B090E0
:1014C0006C028B819C81892B99F40115110581F4A3
:1014D0008114910469F46114710451F4E114F1046C
:1014E00039F486E00E943105809101020E94460590
:1014F000AB2809F019C1CA94CD2809F015C18B8118
:101500009C81019781F00130110569F091E0891605
:10151000910449F021E06216710429F081E0E81697
:10152000F10409F001C186E00E943105980163E0F1
:10153000220F331F6A95E1F78B819C8174E0880F3D
:10154000991F7A95E1F7822B8E299401220F331F80
:10155000220F331F822B9301220F331F822BA0E413
:10156000DA2ED80E8D2D0E944605D0920102C09031
:101570005902D0905A02A0906902B0906A028B8101
:101580009C81892B99F40115110581F48114910432
:1015900069F46114710451F4E114F10439F487E041
:1015A0000E943105809100020E944605AB2809F097
:1015B000C3C0CA94CD2809F0BFC08B819C8101971C
:1015C00081F00130110569F091E08916910449F02C
:1015D00021E06216710429F081E0E816F10409F0B7
:1015E000ABC087E00E9431058B819C8124E0880F8D
:1015F000991F2A95E1F733E0000F111F3A95E1F7A3
:10160000802B8E29880C991C880C991C8829660CC3
:10161000771C862920E4280F2983822F0E94460503
:101620008981809300028091570290915802892B02
:1016300071F480E00E94310548E050E06EE272E013
:1016400080E293E00E946E0180E00E94310580916B
:10165000070220915502309156022130310509F0E0
:1016600073C08F35E9F0909106029F35C9F09091D3
:1016700005029F35A9F0909104029F3589F0909161
:1016800003029F3569F0909102029F3549F09091D5
:1016900001029F3529F0909100029F3509F054C056
:1016A0000E94880480E00E9431054AE050E067E330
:1016B00072E080E293E00E946E0168EE73E080E0E9
:1016C00090E00E94B603ECCF80E00E94310580914B
:1016D00007020E9446051FCD81E00E9431058091DE
:1016E00006020E9446056DCD82E00E943105809180
:1016F00005020E944605C3CD83E00E94310580911A
:1017000004020E94460519CE84E00E9431058091B2
:1017100003020E9446056FCE85E00E94310580914C
:1017200002020E944605C5CE86E00E9431058091E6
:1017300001020E9446051BCF87E00E94310580917F
:1017400000020E9446056FCF082E000C990B0E94E4
:101750000F0C892B09F455C080910602082E000C4D
:10176000990B0E940F0C892B09F44BC08091050244
:10177000082E000C990B0E940F0C892B09F441C014
:1017800080910402082E000C990B0E940F0C892BEB
:10179000C1F180910302082E000C990B0E940F0CDE
:1017A000892B79F180910202082E000C990B0E947E
:1017B0000F0C892B31F180910102082E000C990B3E
:1017C0000E940F0C892BE9F080910002082E000C7A
:1017D000990B0E940F0C892BA1F00E94880480E0D5
:1017E0000E94310548E050E062E472E080E293E05C
:1017F0000E946E0168EE73E080E090E00E94B60304
:10180000ECCF0E94710258CBEE0FFF1F881F8BBFD9
:101810000790F691E02D199485FD0C94170C8062C9
:1018200091110C94170C81568A51D8F70895992775
:0818300088270895F894FFCF0A
:101838005F5F5F5F5F5F5F5F0000000004026E0133
:101848009B015102CC01AA01BE0100000000400525
:101858006E01E903E80348414E474D414E00535499
:101868004F52414745210054525920414741494E62
:0C1878002100594F5520574F4E21000011
:00000001FF
