:100000000C943B010C946C010C946C010C946C01ED
:100010000C946C010C946C010C946C010C946C01AC
:100020000C946C010C946C010C946C010C946C019C
:100030000C946C010C946C010C946C010C946C018C
:100040000C946C010C946C010C946C010C946C017C
:100050000C946C010C946C010C946C010C948A054A
:100060000C946C010C9454050C942A050C946C01AE
:100070000C946C010C946C010C946C010C946C014C
:100080000C946C010C946C010C946C010C946C013C
:100090000C946C010C946C010C946C010C946C012C
:1000A0000C946C010C946C010C946C010C946C011C
:1000B0000C946C010C946C010C946C010C946C010C
:1000C0000C946C010C946C010C946C010C946C01FC
:1000D0000C946C010C946C010C946C010C946C01EC
:1000E0000C946C010C94DB020C94FB020C94AA019E
:1000F0000C949B010C94B7030C9451020C94D405FE
:100100000C94D2020C94C6020C941B050C94E502CC
:100110000C94ED020C9404020C94DF020C94F30294
:100120000C94C0020C9405030C946E010C94F7021D
:100130000C94BE010C94CE020C94E9020C940003C2
:100140000C94CA020C94B6030C9401030C94D502CF
:100150000C94CC0100002100240027002A002D006F
:100160003000330001010000040107010A01000012
:100170002200250028002B002E003100340002014F
:100180000000050108010B010000200023002600EB
:1001900029002C002F00320000010000030106019D
:1001A00009010505050507050808080802020202FD
:1001B0000A0A080804040404010101010101010103
:1001C0000303030303030303040707070C0C0C0CCE
:1001D0000C0C0C0C020202020606060606060606B7
:1001E0000B0B0B0B0B0B0B0B010210202008081044
:1001F0002040102040800201020108040201010297
:10020000040810204080804020100804020180046F
:1002100002018040201008040201080402010102CA
:1002200004081020408001020408102040800000D3
:100230000A0B02090C0D0E08070304010000000060
:1002400000000000000000000000000000000000AE
:10025000000000000000000000001211100000006B
:10026000000000000000000000000000000000008E
:1002700000000000D40511241FBECFEFD1E2DEBF85
:10028000CDBF00E00CBF12E0A0E0B2E0E8EBF7E188
:1002900000E00BBF02C007900D92AC34B107D9F754
:1002A00023E0ACE4B2E001C01D92A833B207E1F74D
:1002B00011E0CBE3D1E000E006C021970109802FD7
:1002C000FE010E94C40BCA33D10780E00807A9F7DA
:1002D0000E941E060C94DA0B0C940000AF92BF92A1
:1002E000CF92DF92EF92FF920F931F93CF93DF9302
:1002F0006C017B018B01040F151FEB015E01AE1831
:10030000BF08C017D10759F06991D601ED91FC9152
:100310000190F081E02DC6011995892B79F7C5016F
:10032000DF91CF911F910F91FF90EF90DF90CF90D1
:10033000BF90AF900895FC01538D448D252F30E080
:10034000842F90E0821B930B541710F0CF960895E2
:1003500001970895FC01918D828D981761F0A28D0F
:10036000AE0FBF2FB11D5D968C91928D9F5F9F73D5
:10037000928F90E008958FEF9FEF0895FC01918D8B
:10038000828D981731F0828DE80FF11D858D90E0F8
:1003900008958FEF9FEF0895FC01918D228D892F95
:1003A00090E0805C9F4F821B91098F73992708957D
:1003B00083E892E00E94CC0121E0892B09F420E03F
:1003C000822F0895FC01A48DA80FB92FB11DA35A47
:1003D000BF4F2C91848D90E001968F739927848F65
:1003E000A689B7892C93A089B1898C918370806488
:1003F0008C93938D848D981306C00288F389E02D29
:1004000080818F7D80830895EF92FF920F931F93D9
:10041000CF93DF93EC0181E0888F9B8D8C8D9813B7
:100420001AC0E889F989808185FF15C09FB7F894C3
:10043000EE89FF896083E889F9898081837080640F
:1004400080839FBF81E090E0DF91CF911F910F915A
:10045000FF90EF900895F62E0B8D10E00F5F1F4F69
:100460000F731127E02E8C8D8E110CC00FB607FC78
:10047000FACFE889F989808185FFF5CFCE010E9406
:10048000E201F1CFEB8DEC0FFD2FF11DE35AFF4F91
:10049000F0829FB7F8940B8FEA89FB898081806294
:1004A000CFCFCF93DF93EC01888D8823B9F0AA8951
:1004B000BB89E889F9898C9185FD03C0808186FD1F
:1004C0000DC00FB607FCF7CF8C9185FFF2CF80816E
:1004D00085FFEDCFCE010E94E201E9CFDF91CF9100
:1004E000089580E090E0892B29F00E94D8018111C5
:1004F0000E94000080E090E0892B49F080E090E0CD
:10050000892B29F00E94000081110E94000080E0E8
:1005100090E0892B49F080E090E0892B29F00E943F
:10052000000081110E94000080E090E0892B49F0DA
:1005300080E090E0892B29F00E94000081110C944A
:10054000000008958150823108F05AC0E82FF0E091
:100550008827E255FD4F8F4F0C94C40BCE02D20278
:10056000C002C602CA020003D502DB02DF02E502B6
:10057000E902ED02F302F7020003FB0201030503A7
:10058000809180008F778093800008958091800013
:100590008F7DF9CF80918000877FF5CF84B58F77ED
:1005A00084BD089584B58F7DFBCF8091B0008F7797
:1005B0008093B00008958091B0008F7DF9CF809135
:1005C00090008F77809390000895809190008F7DA8
:1005D000F9CF80919000877FF5CF8091A0008F7731
:1005E0008093A00008958091A0008F7DF9CF809125
:1005F000A000877FF5CF809120018F778093200125
:100600000895809120018F7DF9CF80912001877F0F
:10061000F5CFCF93DF93282F30E0F901E25DFD4F56
:100620008491F901E851FE4FD491F901EE55FE4F46
:10063000C491CC23A1F081110E94A202EC2FF0E022
:10064000EE0FFF1FE857FE4FA591B491EC91ED23FB
:1006500081E090E009F480E0DF91CF91089580E09F
:1006600090E0FACF1F93CF93DF93282F30E0F9016A
:10067000E25DFD4F8491F901E851FE4FD491F901FB
:10068000EE55FE4FC491CC23A9F0162F81110E9484
:10069000A202EC2FF0E0EE0FFF1FE259FE4FA591F2
:1006A000B4918FB7F894EC91111108C0D095DE2366
:1006B000DC938FBFDF91CF911F910895DE2BF8CF90
:1006C000CF93DF9390E0FC01E851FE4F24918E55CB
:1006D0009E4FFC0184918823D1F090E0880F991FF0
:1006E000FC01EC5AFE4FA591B491FC01E259FE4F7A
:1006F000C591D49161110EC09FB7F8948C91E22FEF
:10070000E0958E238C932881E223E8839FBFDF91BD
:10071000CF9108958FB7F894EC91E22BEC938FBFB3
:10072000F6CF3FB7F8948091510290915202A09178
:100730005302B091540226B5A89B05C02F3F19F073
:100740000196A11DB11D3FBFBA2FA92F982F882751
:10075000BC01CD01620F711D811D911D42E0660F2C
:10076000771F881F991F4A95D1F70895089590E043
:1007700080E00895FC0101900020E9F73197AF0176
:10078000481B590BBC0180E293E00C946E01CF939F
:10079000DF93EC0160E08E810E94320361E08E8184
:1007A0000E94320360E08E810E9432038BE891E068
:1007B0000197F1F7DF91CF910895CF92DF92EF92F9
:1007C000FF920F931F93CF93DF936C017C0187E01F
:1007D000E80EF11CD0E0C0E0062F10E0B8010C2EAE
:1007E00002C0759567950A94E2F76170F7018191EF
:1007F0007F010E9432032196C430D10579F7C601EA
:10080000DF91CF911F910F91FF90EF90DF90CF90EC
:100810000C94C703CF92DF92EF92FF920F931F9336
:10082000CF93DF93EC01F62E642F8C810E9432036C
:100830008D818F3F19F060E00E9432030F2D10E090
:100840008F8584FF25C06E0187E0C80ED11CF12C76
:10085000E12CB8010E2C02C0759567950A94E2F759
:100860006170F60181916F010E943203FFEFEF1A70
:10087000FF0A88E0E816F10461F7CE01DF91CF911D
:100880001F910F91FF90EF90DF90CF900C94C703D2
:10089000B80184E0759567958A95E1F7CE010E94CD
:1008A000DD036F2DCE01DF91CF911F910F91FF904E
:1008B000EF90DF90CF900C94DD0340E0682F80E252
:1008C00093E00C940A0481E00E945D048BE39FE1B5
:1008D0000197F1F70895CF93DF93823029F4909137
:1008E0002F03986090932F03809333031092340367
:1008F00080E48093350380E18093360380E5809324
:10090000370361E0809124030E94600380912503F6
:100910008F3F19F061E00E94600361E0809126033F
:100920000E946003C0E2D3E09E01205233408091D8
:100930002F0384FD0BC084E090E02196281739072F
:1009400044F461E08E810E946003EECF88E090E085
:10095000F4CF8BE39DE00197F1F760E080912403F1
:100960000E94320360E0809126030E94320380914E
:1009700025038F3F19F060E00E94320380912F031E
:1009800084FD34C063E080E293E00E94DD03CBE4A9
:10099000D6E4CE010197F1F763E080E293E00E9494
:1009A000DD032197F1F763E080E293E00E94DD032D
:1009B00083E592E00197F1F762E080E293E00E9424
:1009C000DD0380912F0380620E945D0484E08093A8
:1009D00030038CE00E945D040E94630482E08093F7
:1009E000310386E0DF91CF910C945D0480620E9418
:1009F0005D048BE496E40197F1F780912F03806208
:100A00000E945D0483E592E00197F1F780912F0346
:100A100080620E945D04D5CFE0913303E23048F458
:100A2000E150F0E0E05EFC4F9489890F80680C94FF
:100A30005D04E1E0F6CF41E00E940A0481E090E02D
:100A4000089541E0682F80E293E00E940A0481E06B
:100A500090E008951F920F920FB60F9211240BB6DB
:100A60000F922F933F934F935F936F937F938F9347
:100A70009F93AF93BF93EF93FF9383E892E00E941D
:100A8000E201FF91EF91BF91AF919F918F917F9183
:100A90006F915F914F913F912F910F900BBE0F90EF
:100AA0000FBE0F901F9018951F920F920FB60F92C6
:100AB00011240BB60F922F938F939F93EF93FF9375
:100AC000E0919302F09194028081E0919902F0917B
:100AD0009A0282FD1DC0908180919C028F5F8F736E
:100AE00020919D02821741F0E0919C02F0E0ED57C9
:100AF000FD4F958F80939C02FF91EF919F918F9175
:100B00002F910F900BBE0F900FBE0F901F90189556
:100B10008081F2CF1F920F920FB60F9211242F9364
:100B20003F938F939F93AF93BF9380914D0290918A
:100B30004E02A0914F02B091500230914C0223E03E
:100B4000230F2D3758F50196A11DB11D20934C029E
:100B500080934D0290934E02A0934F02B0935002A7
:100B60008091510290915202A0915302B09154028F
:100B70000196A11DB11D8093510290935202A09342
:100B80005302B0935402BF91AF919F918F913F91C7
:100B90002F910F900FBE0F901F90189526E8230FEE
:100BA0000296A11DB11DD2CFE3E8F2E013821282BA
:100BB00088EE93E0A0E0B0E084839583A683B783BA
:100BC0008CE092E09183808385EC90E09587848728
:100BD00084EC90E09787868780EC90E0918B808B07
:100BE00081EC90E0938B828B82EC90E0958B848BF0
:100BF00086EC90E0978B868B118E128E138E148E5E
:100C0000E0E2F3E0138212828EE192E0918380832E
:100C10008CE084838FEF85838BE0868385E08783F8
:100C200084E0808783E0818782E082871386148650
:100C300015861686178681E00C946B04CF93DF939C
:100C400000D01F92CDB7DEB7789484B5826084BDA2
:100C500084B5816084BD85B5826085BD85B58160C0
:100C600085BD80916E00816080936E00109281003E
:100C700080918100826080938100809181008160F9
:100C800080938100809180008160809380008091BA
:100C9000B10084608093B1008091B0008160809346
:100CA000B0008091910082608093910080919100CA
:100CB000816080939100809190008160809390008A
:100CC0008091A10082608093A1008091A100816049
:100CD0008093A1008091A00081608093A00080910A
:100CE00021018260809321018091210181608093A4
:100CF00021018091200181608093200180917A0000
:100D0000846080937A0080917A00826080937A0078
:100D100080917A00816080937A0080917A00806867
:100D200080937A001092C10082E00E946B04E091EF
:100D30009302F091940282E08083E0918F02F0911F
:100D400090021082E0919102F09192028FEC8083E8
:100D500010929B02E0919702F091980286E08083C6
:100D6000E0919502F0919602808180618083E0910C
:100D70009502F0919602808188608083E0919502CF
:100D8000F0919602808180688083E0919502F091D5
:100D9000960280818F7D808360E08EE00E946003F8
:100DA00060E08FE00E94600360E080E10E946003E9
:100DB00060E081E10E94600360E082E10E946003E4
:100DC00060E086E10E94600360E087E10E946003CA
:100DD00060E088E10E94600360E089E10E946003B6
:100DE00060E08AE10E94600360E08BE10E946003A2
:100DF00060E08CE10E94600360E08DE10E9460038E
:100E000060E08FE10E94600360E080E20E94600386
:100E100060E081E20E94600360E082E20E94600381
:100E200060E083E20E94600360E084E20E9460036D
:100E300060E085E20E94600360E086E20E94600359
:100E400060E08EE10E94600360E087E20E94600340
:100E500086E292E00E94BA0380E00E940C058EE0D8
:100E60000E9409039C838B8390938202809381026A
:100E70008FE00E9409038C019093800280937F028F
:100E800080E10E9409034C0190937E0280937D02D1
:100E900081E10E9409033C0190937C0280937B02D4
:100EA00082E10E9409037C0190937A028093790287
:100EB0008DE10E9409035C01909378028093770290
:100EC0008CE10E9409032C019093760280937502B5
:100ED0008BE10E94090390937402809373028AE16C
:100EE0000E940903909372028093710289E10E942B
:100EF00009039093700280936F0288E10E940903B6
:100F000090936E0280936D0287E10E940903909393
:100F10006C0280936B0286E10E94090390936A023F
:100F2000809369028FE10E9409036C01909368022B
:100F30008093670280E20E9409031C01909366027D
:100F40008093650281E20E9409039093640280937A
:100F5000630282E20E94090390936202809361021D
:100F600083E20E9409039093600280935F0284E20F
:100F70000E94090390935E0280935D0285E20E94C5
:100F8000090390935C0280935B0286E20E9409034E
:100F900090935A02809359028EE10E9409039A832A
:100FA0008983909358028093570287E20E94090335
:100FB000909356028093550289819A81019709F096
:100FC000DEC28B819C81892B99F40115110581F476
:100FD0008114910469F46114710451F4E114F10471
:100FE00039F480E00E940C05809107020E942105DF
:100FF000AB2809F086C3CA94CD2809F082C38B813F
:101000009C81019781F00130110569F091E089160A
:10101000910449F021E06216710429F081E0E8169C
:10102000F10409F06EC380E00E940C059801B3E062
:10103000220F331FBA95E1F78B819C8144E0880F22
:10104000991F4A95E1F7822B8E299401220F331FB5
:10105000220F331F822B9301220F331F822B70E448
:10106000D72ED80E8D2D0E942105D09207028B819C
:101070009C81892B99F40115110581F48114910447
:1010800069F46114710451F4E114F10439F481E05C
:101090000E940C05809106020E942105452809F056
:1010A00038C32A94232809F034C38B819C8101978B
:1010B00081F00130110569F091E08916910449F041
:1010C00021E06216710429F081E0E816F10409F0CC
:1010D00020C381E00E940C05980163E0220F331FBA
:1010E0006A95E1F78B819C8174E0880F991F7A954E
:1010F000E1F7822B8E299401220F331F220F331F19
:10110000822B9301220F331F822BA0E4DA2ED80EFC
:101110008D2D0E942105D0920602C0906302D090CE
:101120006402A0907302B09074028B819C81892B21
:1011300099F40115110581F48114910469F4611485
:10114000710451F4E114F10439F482E00E940C05B9
:10115000809105020E942105AB2809F0E2C2CA94E1
:10116000CD2809F0DEC28B819C81019781F001308E
:10117000110569F091E08916910449F021E06216A9
:10118000710429F081E0E816F10409F0CAC282E096
:101190000E940C059801F3E0220F331FFA95E1F746
:1011A0008B819C81A4E0880F991FAA95E1F7822B7F
:1011B0008E299401220F331F220F331F822B93019C
:1011C000220F331F822B50E4D52ED80E8D2D0E9476
:1011D0002105D0920502C0906102D0906202A090D9
:1011E0007102B09072028B819C81892B99F4011558
:1011F000110581F48114910469F46114710451F4AE
:10120000E114F10439F483E00E940C05809104029A
:101210000E942105AB2809F08CC2CA94CD2809F0A0
:1012200088C28B819C81019781F00130110569F0A2
:1012300091E08916910449F021E06216710429F0C9
:1012400081E0E816F10409F074C283E00E940C0505
:10125000980143E0220F331F4A95E1F78B819C816F
:1012600054E0880F991F5A95E1F7822B8E2994013B
:10127000220F331F220F331F822B9301220F331FA4
:10128000822BE0E4DE2ED80E8D2D0E942105D09217
:101290000402C0905F02D0906002A0906F02B090F4
:1012A00070028B819C81892B99F40115110581F4C1
:1012B0008114910469F46114710451F4E114F1048E
:1012C00039F484E00E940C05809103020E942105FC
:1012D000AB2809F036C2CA94CD2809F032C28B81FE
:1012E0009C81019781F00130110569F091E0891628
:1012F000910449F021E06216710429F081E0E816BA
:10130000F10409F01EC284E00E940C059801E3E09C
:10131000220F331FEA95E1F78B819C81F4E0880F5F
:10132000991FFA95E1F7822B8E299401220F331F22
:10133000220F331F822B9301220F331F822B90E445
:10134000D92ED80E8D2D0E942105D0920302C09077
:101350005D02D0905E02A0906D02B0906E028B8113
:101360009C81892B99F40115110581F48114910454
:1013700069F46114710451F4E114F10439F485E065
:101380000E940C05809102020E942105AB2809F001
:10139000E0C1CA94CD2809F0DCC18B819C81019702
:1013A00081F00130110569F091E08916910449F04E
:1013B00021E06216710429F081E0E816F10409F0D9
:1013C000C8C185E00E940C059801B3E0220F331FCD
:1013D000BA95E1F78B819C8144E0880F991F4A956B
:1013E000E1F7822B8E299401220F331F220F331F26
:1013F000822B9301220F331F822B70E4D72ED80E3D
:101400008D2D0E942105D0920202C0905B02D090E7
:101410005C02A0906B02B0906C028B819C81892B46
:1014200099F40115110581F48114910469F4611492
:10143000710451F4E114F10439F486E00E940C05C2
:10144000809101020E942105AB2809F08AC1CA944B
:10145000CD2809F086C18B819C81019781F00130F4
:10146000110569F091E08916910449F021E06216B6
:10147000710429F081E0E816F10409F072C186E0F8
:101480000E940C05980163E0220F331F6A95E1F773
:101490008B819C8174E0880F991F7A95E1F7822BEC
:1014A0008E299401220F331F220F331F822B9301A9
:1014B000220F331F822BA0E4DA2ED80E8D2D0E942E
:1014C0002105D0920102C0905902D0905A02A090FA
:1014D0006902B0906A028B819C81892B99F4011575
:1014E000110581F48114910469F46114710451F4BB
:1014F000E114F10439F487E00E940C0580910002A8
:101500000E942105AB2809F034C1CA94CD2809F006
:1015100030C18B819C81019781F00130110569F008
:1015200091E08916910449F021E06216710429F0D6
:1015300081E0E816F10409F01CC187E00E940C0567
:101540008B819C8124E0880F991F2A95E1F733E075
:10155000000F111F3A95E1F7802B8E29880C991CFA
:10156000880C991C8829660C771C862920E4280F92
:101570002983822F0E942105898180930002809116
:10158000570290915802892B51F480E00E940C057B
:101590008EE292E00E94BA0380E00E940C058091E6
:1015A000550290915602019749F5809107028F35B7
:1015B000E1F0809106028F35C1F0809105028F35F0
:1015C000A1F0809104028F3581F0809103028F3564
:1015D00061F0809102028F3541F0809101028F35D8
:1015E00021F0809100028F3549F40E94630480E06D
:1015F0000E940C0587E392E00E94BA0380910702E3
:10160000082E000C990B0E94CF0B892B09F4B9C04E
:1016100080910602082E000C990B0E94CF0B892B9B
:1016200009F4AFC080910502082E000C990B0E94AE
:10163000CF0B892B09F4A5C080910402082E000C61
:10164000990B0E94CF0B892B09F49BC08091030258
:10165000082E000C990B0E94CF0B892B09F491C026
:1016600080910202082E000C990B0E94CF0B892B4F
:1016700009F487C080910102082E000C990B0E948A
:10168000CF0B892B09F47DC080910002082E000C3D
:10169000990B0E94CF0B892B09F473C00E94910310
:1016A0004B015C0188EEC82E83E0D82EE12CF12C92
:1016B0000E949103681979098A099B09683E734061
:1016C00081059105A8F391E0C91AD108E108F10854
:1016D00028EE820E23E0921EA11CB11CC114D1047D
:1016E000E104F10429F70E94630480E00E940C05E4
:1016F00048E050E062E472E080E293E00E946E0114
:10170000CDCF80E00E940C05809107020E94210548
:10171000AECC81E00E940C05809106020E9421055A
:10172000FCCC82E00E940C05809105020E942105FC
:1017300052CD83E00E940C05809104020E94210595
:10174000A8CD84E00E940C05809103020E9421052F
:10175000FECD85E00E940C05809102020E942105C9
:1017600054CE86E00E940C05809101020E94210562
:10177000AACE87E00E940C05809100020E942105FC
:10178000FECE0E9471026BCBEE0FFF1F881F8BBF36
:101790000790F691E02D199485FD0C94D70B80628B
:1017A00091110C94D70B81568A51D8F70895992737
:0817B00088270895F894FFCF8B
:1017B8005F5F5F5F5F5F5F5F0000000004026E01B4
:1017C8009B015102CC01AA01BE01000000001B05CB
:1017D8006E01B703B60348414E474D414E0053547E
:1017E8004F52414745210054525920414741494EE3
:0C17F8002100594F5520574F4E21000092
:00000001FF
