:100000000C9428010C9459010C9459010C94590139
:100010000C9459010C9459010C9459010C945901F8
:100020000C9459010C9459010C9459010C945901E8
:100030000C9459010C9459010C9459010C945901D8
:100040000C9459010C9459010C9459010C945901C8
:100050000C9459010C9459010C9459010C94DA0335
:100060000C9459010C94A4030C947A030C94590138
:100070000C9459010C9459010C9459010C94590198
:100080000C9459010C9459010C9459010C94590188
:100090000C9459010C9459010C9459010C94590178
:1000A0000C9459010C9459010C9459010C94590168
:1000B0000C9459010C9459010C9459010C94590158
:1000C0000C9459010C9459010C9459010C94590148
:1000D0000C9459010C9459010C9459010C94590138
:1000E0000C9459010C94B7010C941F020C94C50197
:1000F0000C94AA010C9433020C94B3010C94870164
:100100000C94CB010C94CF010C94DD010C944102B2
:100110000C949E010C9479020C94A6010C94BD01E0
:100120000C94C6020C94C1010C94D3010C94AD0143
:100130000C9410020C9495050C948C010C94A20163
:100140000C94E3010C94D901000021002400270045
:100150002A002D00300033000101000004010701D6
:100160000A0100002200250028002B002E0031008B
:10017000340002010000050108010B010505050519
:10018000070508080808020202020A0A080804040F
:10019000040401010101010101010303030303033D
:1001A0000303040707070C0C0C0C0C0C0C0C0202CC
:1001B000020206060606060606060B0B0B0B0B0BC9
:1001C0000B0B010210202008081020401020408056
:1001D000020102010804020101020408102040800B
:1001E0008040201008040201800402018040201099
:1001F00008040201080402010102040810204080E2
:10020000010204081020408000000A0B02090C0DB6
:100210000E080703040100000000000000000000B9
:1002200000000000000000000000000000000000CE
:10023000000000001211100000000000000000008B
:100240000000000000000000000000000000950514
:1002500011241FBECFEFD1E2DEBFCDBF00E00CBF47
:1002600012E0A0E0B2E0ECEDFBE000E00BBF02C06A
:1002700007900D92A035B107D9F722E0A0E5B2E0D2
:1002800001C01D92A83FB207E1F711E0C8E2D1E03A
:1002900000E006C021970109802FFE010E94E405BD
:1002A000C732D10780E00807A9F70E9424040C9404
:1002B000EC050C940000382FEFE3F2E08491E9EFB5
:1002C000F1E02491E3EBF1E09491992309F435C036
:1002D000882311F181508231F8F4E82FF0E088276B
:1002E000EB58FE4F8F4F0C94E405A601AA0187013D
:1002F0009E01A2018C01AD01B301B701BD01C10195
:10030000C501CB01CF018C01D301D901DD01809161
:1003100080008F7780938000E92FF0E0EE0FFF1FC1
:10032000EE59FE4FA591B4918FB7F894EC9131112D
:1003300048C020952E232C938FBF08958091800074
:100340008F7DE8CF80918000877FE4CF84B58F7761
:1003500084BDE2CF84B58F7DFBCF8091B0008F77D5
:100360008093B000D9CF8091B0008F7DF9CF80917C
:1003700090008F7780939000CFCF809190008F7DF9
:10038000F9CF80919000877FF5CF8091A0008F7783
:100390008093A000C1CF8091A0008F7DF9CF809184
:1003A000A000877FF5CF809120018F778093200177
:1003B000B3CF809120018F7DF9CF80912001877F7D
:1003C000F5CF2E2BB8CFAF92BF92CF92DF92EF92A4
:1003D000FF920F931F93CF93DF936C017B018B01EF
:1003E000040F151FEB015E01AE18BF08C017D1073F
:1003F00059F06991D601ED91FC910190F081E02DC9
:10040000C6011995892B79F7C501DF91CF911F910D
:100410000F91FF90EF90DF90CF90BF90AF90089535
:10042000FC01538D448D252F30E0842F90E0821BFA
:10043000930B541710F0CF96089501970895FC017F
:10044000918D828D981761F0A28DAE0FBF2FB11DD7
:100450005D968C91928D9F5F9F73928F90E008952F
:100460008FEF9FEF0895FC01918D828D981731F0E9
:10047000828DE80FF11D858D90E008958FEF9FEF3D
:100480000895FC01918D228D892F90E0805C9F4F13
:10049000821B91098F73992708958BE592E00E9442
:1004A000410221E0892B09F420E0822F0895FC010C
:1004B000A48DA80FB92FB11DA35ABF4F2C91848DC5
:1004C00090E001968F739927848FA689B7892C9322
:1004D000A089B1898C91837080648C93938D848D75
:1004E000981306C00288F389E02D80818F7D808378
:1004F0000895EF92FF920F931F93CF93DF93EC0138
:1005000081E0888F9B8D8C8D98131AC0E889F989BA
:10051000808185FF15C09FB7F894EE89FF896083BD
:10052000E889F98980818370806480839FBF81E03E
:1005300090E0DF91CF911F910F91FF90EF90089580
:10054000F62E0B8D10E00F5F1F4F0F731127E02E5B
:100550008C8D8E110CC00FB607FCFACFE889F98993
:10056000808185FFF5CFCE010E945702F1CFEB8D40
:10057000EC0FFD2FF11DE35AFF4FF0829FB7F89467
:100580000B8FEA89FB8980818062CFCFCF93DF9385
:10059000EC01888D8823B9F0AA89BB89E889F9899B
:1005A0008C9185FD03C0808186FD0DC00FB607FCD0
:1005B000F7CF8C9185FFF2CF808185FFEDCFCE0103
:1005C0000E945702E9CFDF91CF91089580E090E03B
:1005D000892B29F00E944D0281110E94000080E0C9
:1005E00090E0892B49F080E090E0892B29F00E946F
:1005F000000081110E94000080E090E0892B49F00A
:1006000080E090E0892B29F00E94000081110E9477
:10061000000080E090E0892B49F080E090E0892B99
:1006200029F00E94000081110C9400000895CF93DE
:10063000DF9390E0FC01EE53FE4F249184589E4FCF
:10064000FC0184918823D1F090E0880F991FFC0170
:10065000E85BFE4FA591B491FC01EE59FE4FC591A8
:10066000D49161110EC09FB7F8948C91E22FE09560
:100670008E238C932881E223E8839FBFDF91CF9163
:1006800008958FB7F894EC91E22BEC938FBFF6CFDF
:100690003FB7F8948091550290915602A09157026D
:1006A000B091580226B5A89B05C02F3F19F00196BE
:1006B000A11DB11D3FBFBA2FA92F982F8827BC01BC
:1006C000CD01620F711D811D911D42E0660F771FE4
:1006D000881F991F4A95D1F70895FC0101900020C9
:1006E000E9F73197AF01481B590BBC018BE592E04C
:1006F0000C94E3011F920F920FB60F9211240BB6C8
:100700000F922F933F934F935F936F937F938F93AA
:100710009F93AF93BF93EF93FF938BE592E00E947B
:100720005702FF91EF91BF91AF919F918F917F9170
:100730006F915F914F913F912F910F900BBE0F9052
:100740000FBE0F901F9018951F920F920FB60F9229
:1007500011240BB60F922F938F939F93EF93FF93D8
:10076000E0916B02F0916C028081E0917102F09156
:10077000720282FD1DC09081809174028F5F8F7321
:1007800020917502821741F0E0917402F0E0E55A81
:10079000FD4F958F80937402FF91EF919F918F9100
:1007A0002F910F900BBE0F900FBE0F901F901895BA
:1007B0008081F2CF1F920F920FB60F9211242F93C8
:1007C0003F938F939F93AF93BF93809151029091EA
:1007D0005202A0915302B09154023091500223E092
:1007E000230F2D3758F50196A11DB11D20935002FE
:1007F0008093510290935202A0935302B0935402FB
:100800008091550290915602A0915702B0915802E2
:100810000196A11DB11D8093550290935602A0939D
:100820005702B0935802BF91AF919F918F913F9122
:100830002F910F900FBE0F901F90189526E8230F51
:100840000296A11DB11DD2CFCF93DF93CDB7DEB7F6
:10085000A1970FB6F894DEBF0FBECDBF789484B5D4
:10086000826084BD84B5816084BD85B5826085BDAC
:1008700085B5816085BD80916E00816080936E003A
:10088000109281008091810082608093810080912C
:1008900081008160809381008091800081608093DD
:1008A00080008091B10084608093B1008091B0009D
:1008B00081608093B000809191008260809391006C
:1008C000809191008160809391008091900081607F
:1008D000809390008091A10082608093A10080911C
:1008E000A10081608093A1008091A000816080932D
:1008F000A0008091210182608093210180912101DB
:10090000816080932101809120018160809320018A
:1009100080917A00846080937A0080917A0082606E
:1009200080937A0080917A00816080937A00809130
:100930007A00806880937A001092C10060E086E3BC
:100940000E94170361E087E30E941703E0916B02A6
:10095000F0916C0282E08083E0916702F09168027E
:100960001082E0916902F0916A028FEC808310920C
:100970007302E0916F02F091700286E08083E09153
:100980006D02F0916E02808180618083E0916D0242
:10099000F0916E02808188608083E0916D02F09119
:1009A0006E02808180688083E0916D02F0916E021A
:1009B00080818F7D808382E192E00E946D038BE2D3
:1009C00092E00E946D0310E49AE0892E912CA12CF4
:1009D000B12C80917B00877F80937B0010937C00FB
:1009E00080917A00806480937A0080917A0086FDFD
:1009F000FCCF9091780080917900892798278927EA
:100A000090935A02809359028EE292E00E946D0305
:100A1000C0905902D0905A020D2C000CEE08FF082D
:100A2000F7FE6DC06DE28BE592E00E94790222270D
:100A30003327A9012C193D094E095F0919A2CE01DE
:100A400081967C01CA01B901A50194010E94C205E9
:100A5000605DF70162937F01211531054105510564
:100A600089F7E114F10419F0C7010E946D03809128
:100A7000590290915A02873D91405CF08DE392E0DB
:100A80000E946D0361E087E30E94170381E00E94EA
:100A90005B018DE292E00E946D038BE292E00E9486
:100AA0006D030E9448032B013C0188ECC82ED12C19
:100AB000E12CF12C0E9448036419750986099709F5
:100AC000683E734081059105A8F321E0C21AD10860
:100AD000E108F10888EE480E83E0581E611C711C85
:100AE000C114D104E104F10429F761E087E30E9415
:100AF000170380E00E945B010E94E6026ACFA70113
:100B0000960119A2CE0181967C01CA01B901A50105
:100B100094010E94C205605DF70162937F01211577
:100B200031054105510589F79CCFEBE5F2E01382D1
:100B3000128288EE93E0A0E0B0E084839583A683E0
:100B4000B78384E092E09183808385EC90E0958781
:100B5000848784EC90E09787868780EC90E0918B87
:100B6000808B81EC90E0938B828B82EC90E0958B74
:100B7000848B86EC90E0978B868B118E128E138E71
:100B8000148E0895A1E21A2EAA1BBB1BFD010DC0F5
:100B9000AA1FBB1FEE1FFF1FA217B307E407F5072D
:100BA00020F0A21BB30BE40BF50B661F771F881F09
:100BB000991F1A9469F760957095809590959B019F
:100BC000AC01BD01CF010895EE0FFF1F881F8BBF41
:0C0BD0000790F691E02D1994F894FFCFE7
:100BDC00000000007902E3011002C60241021F026C
:100BEC003302496E697469616C697A696E67206752
:100BFC0061732073656E736F7221000D0A0053656B
:100C0C006E736F722056616C75653A20002020530C
:100C1C006D6F6B6520646574656374656421000099
:00000001FF
